{
  "_format": "hh-sol-artifact-1",
  "contractName": "Web3RPCore",
  "sourceName": "contracts/web3RPCore.sol",
  "abi": [
    {
      "inputs": [
        {
          "internalType": "address",
          "name": "_factory",
          "type": "address"
        },
        {
          "internalType": "address",
          "name": "_owner",
          "type": "address"
        }
      ],
      "stateMutability": "nonpayable",
      "type": "constructor"
    },
    {
      "anonymous": false,
      "inputs": [
        {
          "indexed": true,
          "internalType": "address",
          "name": "account",
          "type": "address"
        },
        {
          "indexed": true,
          "internalType": "address",
          "name": "operator",
          "type": "address"
        },
        {
          "indexed": false,
          "internalType": "bool",
          "name": "approved",
          "type": "bool"
        }
      ],
      "name": "ApprovalForAll",
      "type": "event"
    },
    {
      "anonymous": false,
      "inputs": [
        {
          "indexed": false,
          "internalType": "string",
          "name": "uri",
          "type": "string"
        }
      ],
      "name": "InvoiceOrder",
      "type": "event"
    },
    {
      "anonymous": false,
      "inputs": [
        {
          "indexed": true,
          "internalType": "uint256",
          "name": "tokenId",
          "type": "uint256"
        },
        {
          "indexed": false,
          "internalType": "string",
          "name": "uri",
          "type": "string"
        }
      ],
      "name": "ItemCreated",
      "type": "event"
    },
    {
      "anonymous": false,
      "inputs": [
        {
          "indexed": true,
          "internalType": "address",
          "name": "previousOwner",
          "type": "address"
        },
        {
          "indexed": true,
          "internalType": "address",
          "name": "newOwner",
          "type": "address"
        }
      ],
      "name": "OwnershipTransferred",
      "type": "event"
    },
    {
      "anonymous": false,
      "inputs": [
        {
          "indexed": false,
          "internalType": "string",
          "name": "proof",
          "type": "string"
        }
      ],
      "name": "PurchaseOrder",
      "type": "event"
    },
    {
      "anonymous": false,
      "inputs": [
        {
          "indexed": true,
          "internalType": "address",
          "name": "operator",
          "type": "address"
        },
        {
          "indexed": true,
          "internalType": "address",
          "name": "from",
          "type": "address"
        },
        {
          "indexed": true,
          "internalType": "address",
          "name": "to",
          "type": "address"
        },
        {
          "indexed": false,
          "internalType": "uint256[]",
          "name": "ids",
          "type": "uint256[]"
        },
        {
          "indexed": false,
          "internalType": "uint256[]",
          "name": "values",
          "type": "uint256[]"
        }
      ],
      "name": "TransferBatch",
      "type": "event"
    },
    {
      "anonymous": false,
      "inputs": [
        {
          "indexed": true,
          "internalType": "address",
          "name": "operator",
          "type": "address"
        },
        {
          "indexed": true,
          "internalType": "address",
          "name": "from",
          "type": "address"
        },
        {
          "indexed": true,
          "internalType": "address",
          "name": "to",
          "type": "address"
        },
        {
          "indexed": false,
          "internalType": "uint256",
          "name": "id",
          "type": "uint256"
        },
        {
          "indexed": false,
          "internalType": "uint256",
          "name": "value",
          "type": "uint256"
        }
      ],
      "name": "TransferSingle",
      "type": "event"
    },
    {
      "anonymous": false,
      "inputs": [
        {
          "indexed": false,
          "internalType": "string",
          "name": "value",
          "type": "string"
        },
        {
          "indexed": true,
          "internalType": "uint256",
          "name": "id",
          "type": "uint256"
        }
      ],
      "name": "URI",
      "type": "event"
    },
    {
      "inputs": [
        {
          "internalType": "address",
          "name": "account",
          "type": "address"
        },
        {
          "internalType": "uint256",
          "name": "id",
          "type": "uint256"
        }
      ],
      "name": "balanceOf",
      "outputs": [
        {
          "internalType": "uint256",
          "name": "",
          "type": "uint256"
        }
      ],
      "stateMutability": "view",
      "type": "function"
    },
    {
      "inputs": [
        {
          "internalType": "address[]",
          "name": "accounts",
          "type": "address[]"
        },
        {
          "internalType": "uint256[]",
          "name": "ids",
          "type": "uint256[]"
        }
      ],
      "name": "balanceOfBatch",
      "outputs": [
        {
          "internalType": "uint256[]",
          "name": "",
          "type": "uint256[]"
        }
      ],
      "stateMutability": "view",
      "type": "function"
    },
    {
      "inputs": [
        {
          "internalType": "uint256[]",
          "name": "_tokenIds",
          "type": "uint256[]"
        },
        {
          "internalType": "uint256[]",
          "name": "_tokenAmounts",
          "type": "uint256[]"
        }
      ],
      "name": "burnBatchInventory",
      "outputs": [],
      "stateMutability": "nonpayable",
      "type": "function"
    },
    {
      "inputs": [
        {
          "internalType": "uint256[]",
          "name": "_tokenIds",
          "type": "uint256[]"
        },
        {
          "internalType": "uint256[]",
          "name": "_tokenAmounts",
          "type": "uint256[]"
        },
        {
          "internalType": "string",
          "name": "_uri",
          "type": "string"
        }
      ],
      "name": "createItem",
      "outputs": [],
      "stateMutability": "nonpayable",
      "type": "function"
    },
    {
      "inputs": [],
      "name": "factory",
      "outputs": [
        {
          "internalType": "contract ERPCore",
          "name": "",
          "type": "address"
        }
      ],
      "stateMutability": "view",
      "type": "function"
    },
    {
      "inputs": [
        {
          "internalType": "uint256[]",
          "name": "_tokenIds",
          "type": "uint256[]"
        },
        {
          "internalType": "uint256[]",
          "name": "_tokenAmounts",
          "type": "uint256[]"
        },
        {
          "internalType": "string",
          "name": "_uri",
          "type": "string"
        }
      ],
      "name": "generateInvoice",
      "outputs": [],
      "stateMutability": "nonpayable",
      "type": "function"
    },
    {
      "inputs": [
        {
          "internalType": "uint256[]",
          "name": "_tokenIds",
          "type": "uint256[]"
        },
        {
          "internalType": "uint256[]",
          "name": "_tokenAmounts",
          "type": "uint256[]"
        },
        {
          "internalType": "string",
          "name": "_proof",
          "type": "string"
        }
      ],
      "name": "generatePurchaseOrder",
      "outputs": [],
      "stateMutability": "nonpayable",
      "type": "function"
    },
    {
      "inputs": [],
      "name": "invoiceLength",
      "outputs": [
        {
          "internalType": "uint256",
          "name": "",
          "type": "uint256"
        }
      ],
      "stateMutability": "view",
      "type": "function"
    },
    {
      "inputs": [
        {
          "internalType": "address",
          "name": "account",
          "type": "address"
        },
        {
          "internalType": "address",
          "name": "operator",
          "type": "address"
        }
      ],
      "name": "isApprovedForAll",
      "outputs": [
        {
          "internalType": "bool",
          "name": "",
          "type": "bool"
        }
      ],
      "stateMutability": "view",
      "type": "function"
    },
    {
      "inputs": [],
      "name": "itemsLength",
      "outputs": [
        {
          "internalType": "uint256",
          "name": "",
          "type": "uint256"
        }
      ],
      "stateMutability": "view",
      "type": "function"
    },
    {
      "inputs": [
        {
          "internalType": "uint256[]",
          "name": "_tokenIds",
          "type": "uint256[]"
        },
        {
          "internalType": "uint256[]",
          "name": "_tokenAmounts",
          "type": "uint256[]"
        }
      ],
      "name": "mintBatchInventory",
      "outputs": [],
      "stateMutability": "nonpayable",
      "type": "function"
    },
    {
      "inputs": [
        {
          "internalType": "address",
          "name": "",
          "type": "address"
        },
        {
          "internalType": "address",
          "name": "",
          "type": "address"
        },
        {
          "internalType": "uint256[]",
          "name": "",
          "type": "uint256[]"
        },
        {
          "internalType": "uint256[]",
          "name": "",
          "type": "uint256[]"
        },
        {
          "internalType": "bytes",
          "name": "",
          "type": "bytes"
        }
      ],
      "name": "onERC1155BatchReceived",
      "outputs": [
        {
          "internalType": "bytes4",
          "name": "",
          "type": "bytes4"
        }
      ],
      "stateMutability": "nonpayable",
      "type": "function"
    },
    {
      "inputs": [
        {
          "internalType": "address",
          "name": "",
          "type": "address"
        },
        {
          "internalType": "address",
          "name": "",
          "type": "address"
        },
        {
          "internalType": "uint256",
          "name": "",
          "type": "uint256"
        },
        {
          "internalType": "uint256",
          "name": "",
          "type": "uint256"
        },
        {
          "internalType": "bytes",
          "name": "",
          "type": "bytes"
        }
      ],
      "name": "onERC1155Received",
      "outputs": [
        {
          "internalType": "bytes4",
          "name": "",
          "type": "bytes4"
        }
      ],
      "stateMutability": "nonpayable",
      "type": "function"
    },
    {
      "inputs": [],
      "name": "owner",
      "outputs": [
        {
          "internalType": "address",
          "name": "",
          "type": "address"
        }
      ],
      "stateMutability": "view",
      "type": "function"
    },
    {
      "inputs": [],
      "name": "purchaseLength",
      "outputs": [
        {
          "internalType": "uint256",
          "name": "",
          "type": "uint256"
        }
      ],
      "stateMutability": "view",
      "type": "function"
    },
    {
      "inputs": [],
      "name": "renounceOwnership",
      "outputs": [],
      "stateMutability": "nonpayable",
      "type": "function"
    },
    {
      "inputs": [
        {
          "internalType": "address",
          "name": "from",
          "type": "address"
        },
        {
          "internalType": "address",
          "name": "to",
          "type": "address"
        },
        {
          "internalType": "uint256[]",
          "name": "ids",
          "type": "uint256[]"
        },
        {
          "internalType": "uint256[]",
          "name": "amounts",
          "type": "uint256[]"
        },
        {
          "internalType": "bytes",
          "name": "data",
          "type": "bytes"
        }
      ],
      "name": "safeBatchTransferFrom",
      "outputs": [],
      "stateMutability": "nonpayable",
      "type": "function"
    },
    {
      "inputs": [
        {
          "internalType": "address",
          "name": "from",
          "type": "address"
        },
        {
          "internalType": "address",
          "name": "to",
          "type": "address"
        },
        {
          "internalType": "uint256",
          "name": "id",
          "type": "uint256"
        },
        {
          "internalType": "uint256",
          "name": "amount",
          "type": "uint256"
        },
        {
          "internalType": "bytes",
          "name": "data",
          "type": "bytes"
        }
      ],
      "name": "safeTransferFrom",
      "outputs": [],
      "stateMutability": "nonpayable",
      "type": "function"
    },
    {
      "inputs": [
        {
          "internalType": "address",
          "name": "operator",
          "type": "address"
        },
        {
          "internalType": "bool",
          "name": "approved",
          "type": "bool"
        }
      ],
      "name": "setApprovalForAll",
      "outputs": [],
      "stateMutability": "nonpayable",
      "type": "function"
    },
    {
      "inputs": [
        {
          "internalType": "bytes4",
          "name": "interfaceId",
          "type": "bytes4"
        }
      ],
      "name": "supportsInterface",
      "outputs": [
        {
          "internalType": "bool",
          "name": "",
          "type": "bool"
        }
      ],
      "stateMutability": "view",
      "type": "function"
    },
    {
      "inputs": [
        {
          "internalType": "address",
          "name": "newOwner",
          "type": "address"
        }
      ],
      "name": "transferOwnership",
      "outputs": [],
      "stateMutability": "nonpayable",
      "type": "function"
    },
    {
      "inputs": [
        {
          "internalType": "uint256",
          "name": "_uri",
          "type": "uint256"
        }
      ],
      "name": "uri",
      "outputs": [
        {
          "internalType": "string",
          "name": "",
          "type": "string"
        }
      ],
      "stateMutability": "view",
      "type": "function"
    }
  ],
  "bytecode": "0x60806040523480156200001157600080fd5b50604051620047a6380380620047a6833981810160405281019062000037919062000426565b60405180602001604052806000815250620000676200005b620000d360201b60201c565b620000db60201b60201c565b62000078816200019f60201b60201c565b5081600460006101000a81548173ffffffffffffffffffffffffffffffffffffffff021916908373ffffffffffffffffffffffffffffffffffffffff160217905550620000cb81620001bb60201b60201c565b5050620005ed565b600033905090565b60008060009054906101000a900473ffffffffffffffffffffffffffffffffffffffff169050816000806101000a81548173ffffffffffffffffffffffffffffffffffffffff021916908373ffffffffffffffffffffffffffffffffffffffff1602179055508173ffffffffffffffffffffffffffffffffffffffff168173ffffffffffffffffffffffffffffffffffffffff167f8be0079c531659141344cd1fd0a4f28419497f9722a3daafe3b4186f6b6457e060405160405180910390a35050565b8060039080519060200190620001b79291906200030c565b5050565b620001cb6200025260201b60201c565b600073ffffffffffffffffffffffffffffffffffffffff168173ffffffffffffffffffffffffffffffffffffffff1614156200023e576040517f08c379a00000000000000000000000000000000000000000000000000000000081526004016200023590620004f4565b60405180910390fd5b6200024f81620000db60201b60201c565b50565b62000262620000d360201b60201c565b73ffffffffffffffffffffffffffffffffffffffff1662000288620002e360201b60201c565b73ffffffffffffffffffffffffffffffffffffffff1614620002e1576040517f08c379a0000000000000000000000000000000000000000000000000000000008152600401620002d89062000566565b60405180910390fd5b565b60008060009054906101000a900473ffffffffffffffffffffffffffffffffffffffff16905090565b8280546200031a90620005b7565b90600052602060002090601f0160209004810192826200033e57600085556200038a565b82601f106200035957805160ff19168380011785556200038a565b828001600101855582156200038a579182015b82811115620003895782518255916020019190600101906200036c565b5b5090506200039991906200039d565b5090565b5b80821115620003b85760008160009055506001016200039e565b5090565b600080fd5b600073ffffffffffffffffffffffffffffffffffffffff82169050919050565b6000620003ee82620003c1565b9050919050565b6200040081620003e1565b81146200040c57600080fd5b50565b6000815190506200042081620003f5565b92915050565b6000806040838503121562000440576200043f620003bc565b5b600062000450858286016200040f565b925050602062000463858286016200040f565b9150509250929050565b600082825260208201905092915050565b7f4f776e61626c653a206e6577206f776e657220697320746865207a65726f206160008201527f6464726573730000000000000000000000000000000000000000000000000000602082015250565b6000620004dc6026836200046d565b9150620004e9826200047e565b604082019050919050565b600060208201905081810360008301526200050f81620004cd565b9050919050565b7f4f776e61626c653a2063616c6c6572206973206e6f7420746865206f776e6572600082015250565b60006200054e6020836200046d565b91506200055b8262000516565b602082019050919050565b6000602082019050818103600083015262000581816200053f565b9050919050565b7f4e487b7100000000000000000000000000000000000000000000000000000000600052602260045260246000fd5b60006002820490506001821680620005d057607f821691505b60208210811415620005e757620005e662000588565b5b50919050565b6141a980620005fd6000396000f3fe608060405234801561001057600080fd5b50600436106101415760003560e01c8063b73da62d116100b8578063f23a6e611161007c578063f23a6e6114610372578063f242432a146103a2578063f2fde38b146103be578063f4546cb2146103da578063f863208d146103f6578063fcc7e4c61461041457610141565b8063b73da62d146102bc578063bc197c81146102d8578063c45a015514610308578063e985e9c514610326578063ebe5623d1461035657610141565b80634e1273f41161010a5780634e1273f41461021057806367e1923a14610240578063715018a61461025c5780638da5cb5b14610266578063922741df14610284578063a22cb465146102a057610141565b8062fdd58e1461014657806301ffc9a7146101765780630e89341c146101a65780632a5f7153146101d65780632eb2c2d6146101f4575b600080fd5b610160600480360381019061015b91906126ea565b610432565b60405161016d9190612739565b60405180910390f35b610190600480360381019061018b91906127ac565b6104fc565b60405161019d91906127f4565b60405180910390f35b6101c060048036038101906101bb919061280f565b61050e565b6040516101cd91906128d5565b60405180910390f35b6101de6105b3565b6040516101eb9190612739565b60405180910390f35b61020e60048036038101906102099190612af4565b6105b9565b005b61022a60048036038101906102259190612c86565b61065a565b6040516102379190612dbc565b60405180910390f35b61025a60048036038101906102559190612e39565b610773565b005b6102646109ac565b005b61026e6109c0565b60405161027b9190612ec9565b60405180910390f35b61029e60048036038101906102999190612e39565b6109e9565b005b6102ba60048036038101906102b59190612f10565b610acc565b005b6102d660048036038101906102d19190612fa6565b610ae2565b005b6102f260048036038101906102ed9190612af4565b610c1a565b6040516102ff9190613069565b60405180910390f35b610310610c2f565b60405161031d91906130e3565b60405180910390f35b610340600480360381019061033b91906130fe565b610c55565b60405161034d91906127f4565b60405180910390f35b610370600480360381019061036b91906131df565b610ce9565b005b61038c60048036038101906103879190613290565b610e0c565b6040516103999190613069565b60405180910390f35b6103bc60048036038101906103b79190613290565b610e21565b005b6103d860048036038101906103d39190613327565b610ec2565b005b6103f460048036038101906103ef9190612fa6565b610f46565b005b6103fe61118b565b60405161040b9190612739565b60405180910390f35b61041c611191565b6040516104299190612739565b60405180910390f35b60008073ffffffffffffffffffffffffffffffffffffffff168373ffffffffffffffffffffffffffffffffffffffff1614156104a3576040517f08c379a000000000000000000000000000000000000000000000000000000000815260040161049a906133c6565b60405180910390fd5b6001600083815260200190815260200160002060008473ffffffffffffffffffffffffffffffffffffffff1673ffffffffffffffffffffffffffffffffffffffff16815260200190815260200160002054905092915050565b600061050782611197565b9050919050565b606060086000838152602001908152602001600020805461052e90613415565b80601f016020809104026020016040519081016040528092919081815260200182805461055a90613415565b80156105a75780601f1061057c576101008083540402835291602001916105a7565b820191906000526020600020905b81548152906001019060200180831161058a57829003601f168201915b50505050509050919050565b60075481565b6105c1611211565b73ffffffffffffffffffffffffffffffffffffffff168573ffffffffffffffffffffffffffffffffffffffff161480610607575061060685610601611211565b610c55565b5b610646576040517f08c379a000000000000000000000000000000000000000000000000000000000815260040161063d906134b9565b60405180910390fd5b6106538585858585611219565b5050505050565b606081518351146106a0576040517f08c379a00000000000000000000000000000000000000000000000000000000081526004016106979061354b565b60405180910390fd5b6000835167ffffffffffffffff8111156106bd576106bc6128fc565b5b6040519080825280602002602001820160405280156106eb5781602001602082028036833780820191505090505b50905060005b8451811015610768576107388582815181106107105761070f61356b565b5b602002602001015185838151811061072b5761072a61356b565b5b6020026020010151610432565b82828151811061074b5761074a61356b565b5b60200260200101818152505080610761906135c9565b90506106f1565b508091505092915050565b61077b61153e565b8383905082829050146107c3576040517f08c379a00000000000000000000000000000000000000000000000000000000081526004016107ba90613684565b60405180910390fd5b600084849050905060005b81811015610907576000600960008888858181106107ef576107ee61356b565b5b90506020020135815260200190815260200160002054905060005b818110156108f2576108df30600a600084815260200190815260200160002080548060200260200160405190810160405280929190818152602001828054801561087357602002820191906000526020600020905b81548152602001906001019080831161085f575b5050505050600b60008581526020019081526020016000208054806020026020016040519081016040528092919081815260200182805480156108d557602002820191906000526020600020905b8154815260200190600101908083116108c1575b50505050506115bc565b80806108ea906135c9565b91505061080a565b505080806108ff906135c9565b9150506107ce565b506109a530868680806020026020016040519081016040528093929190818152602001838360200280828437600081840152601f19601f82011690508083019250505050505050858580806020026020016040519081016040528093929190818152602001838360200280828437600081840152601f19601f820116905080830192505050505050506040518060200160405280600081525061188d565b5050505050565b6109b461153e565b6109be6000611abb565b565b60008060009054906101000a900473ffffffffffffffffffffffffffffffffffffffff16905090565b6109f161153e565b838390508282905014610a39576040517f08c379a0000000000000000000000000000000000000000000000000000000008152600401610a3090613684565b60405180910390fd5b610ac630858580806020026020016040519081016040528093929190818152602001838360200280828437600081840152601f19601f82011690508083019250505050505050848480806020026020016040519081016040528093929190818152602001838360200280828437600081840152601f19601f820116905080830192505050505050506115bc565b50505050565b610ade610ad7611211565b8383611b7f565b5050565b610aea61153e565b858590508484905014610b32576040517f08c379a0000000000000000000000000000000000000000000000000000000008152600401610b2990613716565b60405180910390fd5b85859050600960006005548152602001908152602001600020819055508585600a600060055481526020019081526020016000209190610b73929190612552565b508383600b600060055481526020019081526020016000209190610b98929190612552565b5081816008600060055481526020019081526020016000209190610bbd92919061259f565b506005547f2931fd16a2d011bf618da74e9fc397f94aa1807d8916289525a36f0a7d2f12948383604051610bf2929190613763565b60405180910390a260056000815480929190610c0d906135c9565b9190505550505050505050565b600063bc197c8160e01b905095945050505050565b600460009054906101000a900473ffffffffffffffffffffffffffffffffffffffff1681565b6000600260008473ffffffffffffffffffffffffffffffffffffffff1673ffffffffffffffffffffffffffffffffffffffff16815260200190815260200160002060008373ffffffffffffffffffffffffffffffffffffffff1673ffffffffffffffffffffffffffffffffffffffff16815260200190815260200160002060009054906101000a900460ff16905092915050565b848490508383905014610d31576040517f08c379a0000000000000000000000000000000000000000000000000000000008152600401610d2890613684565b60405180910390fd5b610dce30868680806020026020016040519081016040528093929190818152602001838360200280828437600081840152601f19601f82011690508083019250505050505050858580806020026020016040519081016040528093929190818152602001838360200280828437600081840152601f19601f820116905080830192505050505050506040518060200160405280600081525061188d565b7f1890812aad4cf5bf52d81d3c1302a26d5abf754379bab88f8b7f66929ba89e7881604051610dfd91906128d5565b60405180910390a15050505050565b600063f23a6e6160e01b905095945050505050565b610e29611211565b73ffffffffffffffffffffffffffffffffffffffff168573ffffffffffffffffffffffffffffffffffffffff161480610e6f5750610e6e85610e69611211565b610c55565b5b610eae576040517f08c379a0000000000000000000000000000000000000000000000000000000008152600401610ea5906134b9565b60405180910390fd5b610ebb8585858585611cec565b5050505050565b610eca61153e565b600073ffffffffffffffffffffffffffffffffffffffff168173ffffffffffffffffffffffffffffffffffffffff161415610f3a576040517f08c379a0000000000000000000000000000000000000000000000000000000008152600401610f31906137f9565b60405180910390fd5b610f4381611abb565b50565b858590508484905014610f8e576040517f08c379a0000000000000000000000000000000000000000000000000000000008152600401610f8590613684565b60405180910390fd5b61101b30878780806020026020016040519081016040528093929190818152602001838360200280828437600081840152601f19601f82011690508083019250505050505050868680806020026020016040519081016040528093929190818152602001838360200280828437600081840152601f19601f820116905080830192505050505050506115bc565b7fc1b610f19d8ea385f3a1230438dce8639cdce5ab33232bba66a0984bec765436828260405161104c929190613763565b60405180910390a160008060001b90506000600167ffffffffffffffff811115611079576110786128fc565b5b6040519080825280602002602001820160405280156110a75781602001602082028036833780820191505090505b509050600086869050905060005b818110156110f057838382815181106110d1576110d061356b565b5b60200260200101818152505080806110e8906135c9565b9150506110b5565b50600460009054906101000a900473ffffffffffffffffffffffffffffffffffffffff1673ffffffffffffffffffffffffffffffffffffffff166371e3dcf933846040518363ffffffff1660e01b815260040161114e9291906138e1565b600060405180830381600087803b15801561116857600080fd5b505af115801561117c573d6000803e3d6000fd5b50505050505050505050505050565b60055481565b60065481565b60007f4e2312e0000000000000000000000000000000000000000000000000000000007bffffffffffffffffffffffffffffffffffffffffffffffffffffffff1916827bffffffffffffffffffffffffffffffffffffffffffffffffffffffff1916148061120a575061120982611f8b565b5b9050919050565b600033905090565b815183511461125d576040517f08c379a000000000000000000000000000000000000000000000000000000000815260040161125490613983565b60405180910390fd5b600073ffffffffffffffffffffffffffffffffffffffff168473ffffffffffffffffffffffffffffffffffffffff1614156112cd576040517f08c379a00000000000000000000000000000000000000000000000000000000081526004016112c490613a15565b60405180910390fd5b60006112d7611211565b90506112e781878787878761206d565b60005b845181101561149b5760008582815181106113085761130761356b565b5b6020026020010151905060008583815181106113275761132661356b565b5b6020026020010151905060006001600084815260200190815260200160002060008b73ffffffffffffffffffffffffffffffffffffffff1673ffffffffffffffffffffffffffffffffffffffff168152602001908152602001600020549050818110156113c9576040517f08c379a00000000000000000000000000000000000000000000000000000000081526004016113c090613aa7565b60405180910390fd5b8181036001600085815260200190815260200160002060008c73ffffffffffffffffffffffffffffffffffffffff1673ffffffffffffffffffffffffffffffffffffffff16815260200190815260200160002081905550816001600085815260200190815260200160002060008b73ffffffffffffffffffffffffffffffffffffffff1673ffffffffffffffffffffffffffffffffffffffff16815260200190815260200160002060008282546114809190613ac7565b9250508190555050505080611494906135c9565b90506112ea565b508473ffffffffffffffffffffffffffffffffffffffff168673ffffffffffffffffffffffffffffffffffffffff168273ffffffffffffffffffffffffffffffffffffffff167f4a39dc06d4c0dbc64b70af90fd698a233a518aa5d07e595d983b8c0526c8f7fb8787604051611512929190613b1d565b60405180910390a4611528818787878787612075565b61153681878787878761207d565b505050505050565b611546611211565b73ffffffffffffffffffffffffffffffffffffffff166115646109c0565b73ffffffffffffffffffffffffffffffffffffffff16146115ba576040517f08c379a00000000000000000000000000000000000000000000000000000000081526004016115b190613ba0565b60405180910390fd5b565b600073ffffffffffffffffffffffffffffffffffffffff168373ffffffffffffffffffffffffffffffffffffffff16141561162c576040517f08c379a000000000000000000000000000000000000000000000000000000000815260040161162390613c32565b60405180910390fd5b8051825114611670576040517f08c379a000000000000000000000000000000000000000000000000000000000815260040161166790613983565b60405180910390fd5b600061167a611211565b905061169a8185600086866040518060200160405280600081525061206d565b60005b83518110156117e95760008482815181106116bb576116ba61356b565b5b6020026020010151905060008483815181106116da576116d961356b565b5b6020026020010151905060006001600084815260200190815260200160002060008973ffffffffffffffffffffffffffffffffffffffff1673ffffffffffffffffffffffffffffffffffffffff1681526020019081526020016000205490508181101561177c576040517f08c379a000000000000000000000000000000000000000000000000000000000815260040161177390613cc4565b60405180910390fd5b8181036001600085815260200190815260200160002060008a73ffffffffffffffffffffffffffffffffffffffff1673ffffffffffffffffffffffffffffffffffffffff1681526020019081526020016000208190555050505080806117e1906135c9565b91505061169d565b50600073ffffffffffffffffffffffffffffffffffffffff168473ffffffffffffffffffffffffffffffffffffffff168273ffffffffffffffffffffffffffffffffffffffff167f4a39dc06d4c0dbc64b70af90fd698a233a518aa5d07e595d983b8c0526c8f7fb8686604051611861929190613b1d565b60405180910390a461188781856000868660405180602001604052806000815250612075565b50505050565b600073ffffffffffffffffffffffffffffffffffffffff168473ffffffffffffffffffffffffffffffffffffffff1614156118fd576040517f08c379a00000000000000000000000000000000000000000000000000000000081526004016118f490613d56565b60405180910390fd5b8151835114611941576040517f08c379a000000000000000000000000000000000000000000000000000000000815260040161193890613983565b60405180910390fd5b600061194b611211565b905061195c8160008787878761206d565b60005b8451811015611a165783818151811061197b5761197a61356b565b5b60200260200101516001600087848151811061199a5761199961356b565b5b6020026020010151815260200190815260200160002060008873ffffffffffffffffffffffffffffffffffffffff1673ffffffffffffffffffffffffffffffffffffffff16815260200190815260200160002060008282546119fc9190613ac7565b925050819055508080611a0e906135c9565b91505061195f565b508473ffffffffffffffffffffffffffffffffffffffff16600073ffffffffffffffffffffffffffffffffffffffff168273ffffffffffffffffffffffffffffffffffffffff167f4a39dc06d4c0dbc64b70af90fd698a233a518aa5d07e595d983b8c0526c8f7fb8787604051611a8e929190613b1d565b60405180910390a4611aa581600087878787612075565b611ab48160008787878761207d565b5050505050565b60008060009054906101000a900473ffffffffffffffffffffffffffffffffffffffff169050816000806101000a81548173ffffffffffffffffffffffffffffffffffffffff021916908373ffffffffffffffffffffffffffffffffffffffff1602179055508173ffffffffffffffffffffffffffffffffffffffff168173ffffffffffffffffffffffffffffffffffffffff167f8be0079c531659141344cd1fd0a4f28419497f9722a3daafe3b4186f6b6457e060405160405180910390a35050565b8173ffffffffffffffffffffffffffffffffffffffff168373ffffffffffffffffffffffffffffffffffffffff161415611bee576040517f08c379a0000000000000000000000000000000000000000000000000000000008152600401611be590613de8565b60405180910390fd5b80600260008573ffffffffffffffffffffffffffffffffffffffff1673ffffffffffffffffffffffffffffffffffffffff16815260200190815260200160002060008473ffffffffffffffffffffffffffffffffffffffff1673ffffffffffffffffffffffffffffffffffffffff16815260200190815260200160002060006101000a81548160ff0219169083151502179055508173ffffffffffffffffffffffffffffffffffffffff168373ffffffffffffffffffffffffffffffffffffffff167f17307eab39ab6107e8899845ad3d59bd9653f200f220920489ca2b5937696c3183604051611cdf91906127f4565b60405180910390a3505050565b600073ffffffffffffffffffffffffffffffffffffffff168473ffffffffffffffffffffffffffffffffffffffff161415611d5c576040517f08c379a0000000000000000000000000000000000000000000000000000000008152600401611d5390613a15565b60405180910390fd5b6000611d66611211565b90506000611d7385612264565b90506000611d8085612264565b9050611d9083898985858961206d565b60006001600088815260200190815260200160002060008a73ffffffffffffffffffffffffffffffffffffffff1673ffffffffffffffffffffffffffffffffffffffff16815260200190815260200160002054905085811015611e28576040517f08c379a0000000000000000000000000000000000000000000000000000000008152600401611e1f90613aa7565b60405180910390fd5b8581036001600089815260200190815260200160002060008b73ffffffffffffffffffffffffffffffffffffffff1673ffffffffffffffffffffffffffffffffffffffff16815260200190815260200160002081905550856001600089815260200190815260200160002060008a73ffffffffffffffffffffffffffffffffffffffff1673ffffffffffffffffffffffffffffffffffffffff1681526020019081526020016000206000828254611edf9190613ac7565b925050819055508773ffffffffffffffffffffffffffffffffffffffff168973ffffffffffffffffffffffffffffffffffffffff168573ffffffffffffffffffffffffffffffffffffffff167fc3d58168c5ae7397731d063d5bbf3d657854427343f4c083240f7aacaa2d0f628a8a604051611f5c929190613e08565b60405180910390a4611f72848a8a86868a612075565b611f80848a8a8a8a8a6122de565b505050505050505050565b60007fd9b67a26000000000000000000000000000000000000000000000000000000007bffffffffffffffffffffffffffffffffffffffffffffffffffffffff1916827bffffffffffffffffffffffffffffffffffffffffffffffffffffffff1916148061205657507f0e89341c000000000000000000000000000000000000000000000000000000007bffffffffffffffffffffffffffffffffffffffffffffffffffffffff1916827bffffffffffffffffffffffffffffffffffffffffffffffffffffffff1916145b806120665750612065826124c5565b5b9050919050565b505050505050565b505050505050565b61209c8473ffffffffffffffffffffffffffffffffffffffff1661252f565b1561225c578373ffffffffffffffffffffffffffffffffffffffff1663bc197c8187878686866040518663ffffffff1660e01b81526004016120e2959493929190613e86565b602060405180830381600087803b1580156120fc57600080fd5b505af192505050801561212d57506040513d601f19601f8201168201806040525081019061212a9190613f03565b60015b6121d357612139613f3d565b806308c379a01415612196575061214e613f5f565b806121595750612198565b806040517f08c379a000000000000000000000000000000000000000000000000000000000815260040161218d91906128d5565b60405180910390fd5b505b6040517f08c379a00000000000000000000000000000000000000000000000000000000081526004016121ca90614067565b60405180910390fd5b63bc197c8160e01b7bffffffffffffffffffffffffffffffffffffffffffffffffffffffff1916817bffffffffffffffffffffffffffffffffffffffffffffffffffffffff19161461225a576040517f08c379a0000000000000000000000000000000000000000000000000000000008152600401612251906140f9565b60405180910390fd5b505b505050505050565b60606000600167ffffffffffffffff811115612283576122826128fc565b5b6040519080825280602002602001820160405280156122b15781602001602082028036833780820191505090505b50905082816000815181106122c9576122c861356b565b5b60200260200101818152505080915050919050565b6122fd8473ffffffffffffffffffffffffffffffffffffffff1661252f565b156124bd578373ffffffffffffffffffffffffffffffffffffffff1663f23a6e6187878686866040518663ffffffff1660e01b8152600401612343959493929190614119565b602060405180830381600087803b15801561235d57600080fd5b505af192505050801561238e57506040513d601f19601f8201168201806040525081019061238b9190613f03565b60015b6124345761239a613f3d565b806308c379a014156123f757506123af613f5f565b806123ba57506123f9565b806040517f08c379a00000000000000000000000000000000000000000000000000000000081526004016123ee91906128d5565b60405180910390fd5b505b6040517f08c379a000000000000000000000000000000000000000000000000000000000815260040161242b90614067565b60405180910390fd5b63f23a6e6160e01b7bffffffffffffffffffffffffffffffffffffffffffffffffffffffff1916817bffffffffffffffffffffffffffffffffffffffffffffffffffffffff1916146124bb576040517f08c379a00000000000000000000000000000000000000000000000000000000081526004016124b2906140f9565b60405180910390fd5b505b505050505050565b60007f01ffc9a7000000000000000000000000000000000000000000000000000000007bffffffffffffffffffffffffffffffffffffffffffffffffffffffff1916827bffffffffffffffffffffffffffffffffffffffffffffffffffffffff1916149050919050565b6000808273ffffffffffffffffffffffffffffffffffffffff163b119050919050565b82805482825590600052602060002090810192821561258e579160200282015b8281111561258d578235825591602001919060010190612572565b5b50905061259b9190612625565b5090565b8280546125ab90613415565b90600052602060002090601f0160209004810192826125cd5760008555612614565b82601f106125e657803560ff1916838001178555612614565b82800160010185558215612614579182015b828111156126135782358255916020019190600101906125f8565b5b5090506126219190612625565b5090565b5b8082111561263e576000816000905550600101612626565b5090565b6000604051905090565b600080fd5b600080fd5b600073ffffffffffffffffffffffffffffffffffffffff82169050919050565b600061268182612656565b9050919050565b61269181612676565b811461269c57600080fd5b50565b6000813590506126ae81612688565b92915050565b6000819050919050565b6126c7816126b4565b81146126d257600080fd5b50565b6000813590506126e4816126be565b92915050565b600080604083850312156127015761270061264c565b5b600061270f8582860161269f565b9250506020612720858286016126d5565b9150509250929050565b612733816126b4565b82525050565b600060208201905061274e600083018461272a565b92915050565b60007fffffffff0000000000000000000000000000000000000000000000000000000082169050919050565b61278981612754565b811461279457600080fd5b50565b6000813590506127a681612780565b92915050565b6000602082840312156127c2576127c161264c565b5b60006127d084828501612797565b91505092915050565b60008115159050919050565b6127ee816127d9565b82525050565b600060208201905061280960008301846127e5565b92915050565b6000602082840312156128255761282461264c565b5b6000612833848285016126d5565b91505092915050565b600081519050919050565b600082825260208201905092915050565b60005b8381101561287657808201518184015260208101905061285b565b83811115612885576000848401525b50505050565b6000601f19601f8301169050919050565b60006128a78261283c565b6128b18185612847565b93506128c1818560208601612858565b6128ca8161288b565b840191505092915050565b600060208201905081810360008301526128ef818461289c565b905092915050565b600080fd5b7f4e487b7100000000000000000000000000000000000000000000000000000000600052604160045260246000fd5b6129348261288b565b810181811067ffffffffffffffff82111715612953576129526128fc565b5b80604052505050565b6000612966612642565b9050612972828261292b565b919050565b600067ffffffffffffffff821115612992576129916128fc565b5b602082029050602081019050919050565b600080fd5b60006129bb6129b684612977565b61295c565b905080838252602082019050602084028301858111156129de576129dd6129a3565b5b835b81811015612a0757806129f388826126d5565b8452602084019350506020810190506129e0565b5050509392505050565b600082601f830112612a2657612a256128f7565b5b8135612a368482602086016129a8565b91505092915050565b600080fd5b600067ffffffffffffffff821115612a5f57612a5e6128fc565b5b612a688261288b565b9050602081019050919050565b82818337600083830152505050565b6000612a97612a9284612a44565b61295c565b905082815260208101848484011115612ab357612ab2612a3f565b5b612abe848285612a75565b509392505050565b600082601f830112612adb57612ada6128f7565b5b8135612aeb848260208601612a84565b91505092915050565b600080600080600060a08688031215612b1057612b0f61264c565b5b6000612b1e8882890161269f565b9550506020612b2f8882890161269f565b945050604086013567ffffffffffffffff811115612b5057612b4f612651565b5b612b5c88828901612a11565b935050606086013567ffffffffffffffff811115612b7d57612b7c612651565b5b612b8988828901612a11565b925050608086013567ffffffffffffffff811115612baa57612ba9612651565b5b612bb688828901612ac6565b9150509295509295909350565b600067ffffffffffffffff821115612bde57612bdd6128fc565b5b602082029050602081019050919050565b6000612c02612bfd84612bc3565b61295c565b90508083825260208201905060208402830185811115612c2557612c246129a3565b5b835b81811015612c4e5780612c3a888261269f565b845260208401935050602081019050612c27565b5050509392505050565b600082601f830112612c6d57612c6c6128f7565b5b8135612c7d848260208601612bef565b91505092915050565b60008060408385031215612c9d57612c9c61264c565b5b600083013567ffffffffffffffff811115612cbb57612cba612651565b5b612cc785828601612c58565b925050602083013567ffffffffffffffff811115612ce857612ce7612651565b5b612cf485828601612a11565b9150509250929050565b600081519050919050565b600082825260208201905092915050565b6000819050602082019050919050565b612d33816126b4565b82525050565b6000612d458383612d2a565b60208301905092915050565b6000602082019050919050565b6000612d6982612cfe565b612d738185612d09565b9350612d7e83612d1a565b8060005b83811015612daf578151612d968882612d39565b9750612da183612d51565b925050600181019050612d82565b5085935050505092915050565b60006020820190508181036000830152612dd68184612d5e565b905092915050565b600080fd5b60008083601f840112612df957612df86128f7565b5b8235905067ffffffffffffffff811115612e1657612e15612dde565b5b602083019150836020820283011115612e3257612e316129a3565b5b9250929050565b60008060008060408587031215612e5357612e5261264c565b5b600085013567ffffffffffffffff811115612e7157612e70612651565b5b612e7d87828801612de3565b9450945050602085013567ffffffffffffffff811115612ea057612e9f612651565b5b612eac87828801612de3565b925092505092959194509250565b612ec381612676565b82525050565b6000602082019050612ede6000830184612eba565b92915050565b612eed816127d9565b8114612ef857600080fd5b50565b600081359050612f0a81612ee4565b92915050565b60008060408385031215612f2757612f2661264c565b5b6000612f358582860161269f565b9250506020612f4685828601612efb565b9150509250929050565b60008083601f840112612f6657612f656128f7565b5b8235905067ffffffffffffffff811115612f8357612f82612dde565b5b602083019150836001820283011115612f9f57612f9e6129a3565b5b9250929050565b60008060008060008060608789031215612fc357612fc261264c565b5b600087013567ffffffffffffffff811115612fe157612fe0612651565b5b612fed89828a01612de3565b9650965050602087013567ffffffffffffffff8111156130105761300f612651565b5b61301c89828a01612de3565b9450945050604087013567ffffffffffffffff81111561303f5761303e612651565b5b61304b89828a01612f50565b92509250509295509295509295565b61306381612754565b82525050565b600060208201905061307e600083018461305a565b92915050565b6000819050919050565b60006130a96130a461309f84612656565b613084565b612656565b9050919050565b60006130bb8261308e565b9050919050565b60006130cd826130b0565b9050919050565b6130dd816130c2565b82525050565b60006020820190506130f860008301846130d4565b92915050565b600080604083850312156131155761311461264c565b5b60006131238582860161269f565b92505060206131348582860161269f565b9150509250929050565b600067ffffffffffffffff821115613159576131586128fc565b5b6131628261288b565b9050602081019050919050565b600061318261317d8461313e565b61295c565b90508281526020810184848401111561319e5761319d612a3f565b5b6131a9848285612a75565b509392505050565b600082601f8301126131c6576131c56128f7565b5b81356131d684826020860161316f565b91505092915050565b6000806000806000606086880312156131fb576131fa61264c565b5b600086013567ffffffffffffffff81111561321957613218612651565b5b61322588828901612de3565b9550955050602086013567ffffffffffffffff81111561324857613247612651565b5b61325488828901612de3565b9350935050604086013567ffffffffffffffff81111561327757613276612651565b5b613283888289016131b1565b9150509295509295909350565b600080600080600060a086880312156132ac576132ab61264c565b5b60006132ba8882890161269f565b95505060206132cb8882890161269f565b94505060406132dc888289016126d5565b93505060606132ed888289016126d5565b925050608086013567ffffffffffffffff81111561330e5761330d612651565b5b61331a88828901612ac6565b9150509295509295909350565b60006020828403121561333d5761333c61264c565b5b600061334b8482850161269f565b91505092915050565b7f455243313135353a2061646472657373207a65726f206973206e6f742061207660008201527f616c6964206f776e657200000000000000000000000000000000000000000000602082015250565b60006133b0602a83612847565b91506133bb82613354565b604082019050919050565b600060208201905081810360008301526133df816133a3565b9050919050565b7f4e487b7100000000000000000000000000000000000000000000000000000000600052602260045260246000fd5b6000600282049050600182168061342d57607f821691505b60208210811415613441576134406133e6565b5b50919050565b7f455243313135353a2063616c6c6572206973206e6f7420746f6b656e206f776e60008201527f6572206e6f7220617070726f7665640000000000000000000000000000000000602082015250565b60006134a3602f83612847565b91506134ae82613447565b604082019050919050565b600060208201905081810360008301526134d281613496565b9050919050565b7f455243313135353a206163636f756e747320616e6420696473206c656e67746860008201527f206d69736d617463680000000000000000000000000000000000000000000000602082015250565b6000613535602983612847565b9150613540826134d9565b604082019050919050565b6000602082019050818103600083015261356481613528565b9050919050565b7f4e487b7100000000000000000000000000000000000000000000000000000000600052603260045260246000fd5b7f4e487b7100000000000000000000000000000000000000000000000000000000600052601160045260246000fd5b60006135d4826126b4565b91507fffffffffffffffffffffffffffffffffffffffffffffffffffffffffffffffff8214156136075761360661359a565b5b600182019050919050565b7f546f6b656e49647320616e6420416d6f756e74732061727261792073686f756c60008201527f642062652073616d652073697a652e0000000000000000000000000000000000602082015250565b600061366e602f83612847565b915061367982613612565b604082019050919050565b6000602082019050818103600083015261369d81613661565b9050919050565b7f546f6b656e49647320616e6420616d6f756e74732061727261792073686f756c60008201527f642062652073616d652073697a652e0000000000000000000000000000000000602082015250565b6000613700602f83612847565b915061370b826136a4565b604082019050919050565b6000602082019050818103600083015261372f816136f3565b9050919050565b60006137428385612847565b935061374f838584612a75565b6137588361288b565b840190509392505050565b6000602082019050818103600083015261377e818486613736565b90509392505050565b7f4f776e61626c653a206e6577206f776e657220697320746865207a65726f206160008201527f6464726573730000000000000000000000000000000000000000000000000000602082015250565b60006137e3602683612847565b91506137ee82613787565b604082019050919050565b60006020820190508181036000830152613812816137d6565b9050919050565b600081519050919050565b600082825260208201905092915050565b6000819050602082019050919050565b6000819050919050565b61385881613845565b82525050565b600061386a838361384f565b60208301905092915050565b6000602082019050919050565b600061388e82613819565b6138988185613824565b93506138a383613835565b8060005b838110156138d45781516138bb888261385e565b97506138c683613876565b9250506001810190506138a7565b5085935050505092915050565b60006040820190506138f66000830185612eba565b81810360208301526139088184613883565b90509392505050565b7f455243313135353a2069647320616e6420616d6f756e7473206c656e6774682060008201527f6d69736d61746368000000000000000000000000000000000000000000000000602082015250565b600061396d602883612847565b915061397882613911565b604082019050919050565b6000602082019050818103600083015261399c81613960565b9050919050565b7f455243313135353a207472616e7366657220746f20746865207a65726f20616460008201527f6472657373000000000000000000000000000000000000000000000000000000602082015250565b60006139ff602583612847565b9150613a0a826139a3565b604082019050919050565b60006020820190508181036000830152613a2e816139f2565b9050919050565b7f455243313135353a20696e73756666696369656e742062616c616e636520666f60008201527f72207472616e7366657200000000000000000000000000000000000000000000602082015250565b6000613a91602a83612847565b9150613a9c82613a35565b604082019050919050565b60006020820190508181036000830152613ac081613a84565b9050919050565b6000613ad2826126b4565b9150613add836126b4565b9250827fffffffffffffffffffffffffffffffffffffffffffffffffffffffffffffffff03821115613b1257613b1161359a565b5b828201905092915050565b60006040820190508181036000830152613b378185612d5e565b90508181036020830152613b4b8184612d5e565b90509392505050565b7f4f776e61626c653a2063616c6c6572206973206e6f7420746865206f776e6572600082015250565b6000613b8a602083612847565b9150613b9582613b54565b602082019050919050565b60006020820190508181036000830152613bb981613b7d565b9050919050565b7f455243313135353a206275726e2066726f6d20746865207a65726f206164647260008201527f6573730000000000000000000000000000000000000000000000000000000000602082015250565b6000613c1c602383612847565b9150613c2782613bc0565b604082019050919050565b60006020820190508181036000830152613c4b81613c0f565b9050919050565b7f455243313135353a206275726e20616d6f756e7420657863656564732062616c60008201527f616e636500000000000000000000000000000000000000000000000000000000602082015250565b6000613cae602483612847565b9150613cb982613c52565b604082019050919050565b60006020820190508181036000830152613cdd81613ca1565b9050919050565b7f455243313135353a206d696e7420746f20746865207a65726f2061646472657360008201527f7300000000000000000000000000000000000000000000000000000000000000602082015250565b6000613d40602183612847565b9150613d4b82613ce4565b604082019050919050565b60006020820190508181036000830152613d6f81613d33565b9050919050565b7f455243313135353a2073657474696e6720617070726f76616c2073746174757360008201527f20666f722073656c660000000000000000000000000000000000000000000000602082015250565b6000613dd2602983612847565b9150613ddd82613d76565b604082019050919050565b60006020820190508181036000830152613e0181613dc5565b9050919050565b6000604082019050613e1d600083018561272a565b613e2a602083018461272a565b9392505050565b600081519050919050565b600082825260208201905092915050565b6000613e5882613e31565b613e628185613e3c565b9350613e72818560208601612858565b613e7b8161288b565b840191505092915050565b600060a082019050613e9b6000830188612eba565b613ea86020830187612eba565b8181036040830152613eba8186612d5e565b90508181036060830152613ece8185612d5e565b90508181036080830152613ee28184613e4d565b90509695505050505050565b600081519050613efd81612780565b92915050565b600060208284031215613f1957613f1861264c565b5b6000613f2784828501613eee565b91505092915050565b60008160e01c9050919050565b600060033d1115613f5c5760046000803e613f59600051613f30565b90505b90565b600060443d1015613f6f57613ff2565b613f77612642565b60043d036004823e80513d602482011167ffffffffffffffff82111715613f9f575050613ff2565b808201805167ffffffffffffffff811115613fbd5750505050613ff2565b80602083010160043d038501811115613fda575050505050613ff2565b613fe98260200185018661292b565b82955050505050505b90565b7f455243313135353a207472616e7366657220746f206e6f6e204552433131353560008201527f526563656976657220696d706c656d656e746572000000000000000000000000602082015250565b6000614051603483612847565b915061405c82613ff5565b604082019050919050565b6000602082019050818103600083015261408081614044565b9050919050565b7f455243313135353a204552433131353552656365697665722072656a6563746560008201527f6420746f6b656e73000000000000000000000000000000000000000000000000602082015250565b60006140e3602883612847565b91506140ee82614087565b604082019050919050565b60006020820190508181036000830152614112816140d6565b9050919050565b600060a08201905061412e6000830188612eba565b61413b6020830187612eba565b614148604083018661272a565b614155606083018561272a565b81810360808301526141678184613e4d565b9050969550505050505056fea26469706673582212201410a6e4c13f54192060908ee6b12c0fd0aa49172aaa60d44d7835ee055fc82d64736f6c63430008090033",
  "linkReferences": {},
  "deployedLinkReferences": {}
}