{
  "_format": "hh-sol-artifact-1",
  "contractName": "Web3RPCore",
  "sourceName": "contracts/web3RPCore.sol",
  "abi": [
    {
      "inputs": [
        {
          "internalType": "address",
          "name": "_factory",
          "type": "address"
        },
        {
          "internalType": "address",
          "name": "_owner",
          "type": "address"
        }
      ],
      "stateMutability": "nonpayable",
      "type": "constructor"
    },
    {
      "anonymous": false,
      "inputs": [
        {
          "indexed": true,
          "internalType": "address",
          "name": "account",
          "type": "address"
        },
        {
          "indexed": true,
          "internalType": "address",
          "name": "operator",
          "type": "address"
        },
        {
          "indexed": false,
          "internalType": "bool",
          "name": "approved",
          "type": "bool"
        }
      ],
      "name": "ApprovalForAll",
      "type": "event"
    },
    {
      "anonymous": false,
      "inputs": [
        {
          "indexed": false,
          "internalType": "string",
          "name": "uri",
          "type": "string"
        }
      ],
      "name": "InvoiceOrder",
      "type": "event"
    },
    {
      "anonymous": false,
      "inputs": [
        {
          "indexed": true,
          "internalType": "uint256",
          "name": "tokenId",
          "type": "uint256"
        },
        {
          "indexed": false,
          "internalType": "string",
          "name": "uri",
          "type": "string"
        }
      ],
      "name": "ItemCreated",
      "type": "event"
    },
    {
      "anonymous": false,
      "inputs": [
        {
          "indexed": true,
          "internalType": "address",
          "name": "previousOwner",
          "type": "address"
        },
        {
          "indexed": true,
          "internalType": "address",
          "name": "newOwner",
          "type": "address"
        }
      ],
      "name": "OwnershipTransferred",
      "type": "event"
    },
    {
      "anonymous": false,
      "inputs": [
        {
          "indexed": false,
          "internalType": "string",
          "name": "proof",
          "type": "string"
        }
      ],
      "name": "PurchaseOrder",
      "type": "event"
    },
    {
      "anonymous": false,
      "inputs": [
        {
          "indexed": true,
          "internalType": "address",
          "name": "operator",
          "type": "address"
        },
        {
          "indexed": true,
          "internalType": "address",
          "name": "from",
          "type": "address"
        },
        {
          "indexed": true,
          "internalType": "address",
          "name": "to",
          "type": "address"
        },
        {
          "indexed": false,
          "internalType": "uint256[]",
          "name": "ids",
          "type": "uint256[]"
        },
        {
          "indexed": false,
          "internalType": "uint256[]",
          "name": "values",
          "type": "uint256[]"
        }
      ],
      "name": "TransferBatch",
      "type": "event"
    },
    {
      "anonymous": false,
      "inputs": [
        {
          "indexed": true,
          "internalType": "address",
          "name": "operator",
          "type": "address"
        },
        {
          "indexed": true,
          "internalType": "address",
          "name": "from",
          "type": "address"
        },
        {
          "indexed": true,
          "internalType": "address",
          "name": "to",
          "type": "address"
        },
        {
          "indexed": false,
          "internalType": "uint256",
          "name": "id",
          "type": "uint256"
        },
        {
          "indexed": false,
          "internalType": "uint256",
          "name": "value",
          "type": "uint256"
        }
      ],
      "name": "TransferSingle",
      "type": "event"
    },
    {
      "anonymous": false,
      "inputs": [
        {
          "indexed": false,
          "internalType": "string",
          "name": "value",
          "type": "string"
        },
        {
          "indexed": true,
          "internalType": "uint256",
          "name": "id",
          "type": "uint256"
        }
      ],
      "name": "URI",
      "type": "event"
    },
    {
      "inputs": [
        {
          "internalType": "address",
          "name": "account",
          "type": "address"
        },
        {
          "internalType": "uint256",
          "name": "id",
          "type": "uint256"
        }
      ],
      "name": "balanceOf",
      "outputs": [
        {
          "internalType": "uint256",
          "name": "",
          "type": "uint256"
        }
      ],
      "stateMutability": "view",
      "type": "function"
    },
    {
      "inputs": [
        {
          "internalType": "address[]",
          "name": "accounts",
          "type": "address[]"
        },
        {
          "internalType": "uint256[]",
          "name": "ids",
          "type": "uint256[]"
        }
      ],
      "name": "balanceOfBatch",
      "outputs": [
        {
          "internalType": "uint256[]",
          "name": "",
          "type": "uint256[]"
        }
      ],
      "stateMutability": "view",
      "type": "function"
    },
    {
      "inputs": [
        {
          "internalType": "uint256[]",
          "name": "_tokenIds",
          "type": "uint256[]"
        },
        {
          "internalType": "uint256[]",
          "name": "_tokenAmounts",
          "type": "uint256[]"
        }
      ],
      "name": "burnBatchInventory",
      "outputs": [],
      "stateMutability": "nonpayable",
      "type": "function"
    },
    {
      "inputs": [
        {
          "internalType": "uint256[]",
          "name": "_tokenIds",
          "type": "uint256[]"
        },
        {
          "internalType": "uint256[]",
          "name": "_tokenAmounts",
          "type": "uint256[]"
        },
        {
          "internalType": "string",
          "name": "_uri",
          "type": "string"
        }
      ],
      "name": "createItem",
      "outputs": [],
      "stateMutability": "nonpayable",
      "type": "function"
    },
    {
      "inputs": [],
      "name": "factory",
      "outputs": [
        {
          "internalType": "contract ERPCore",
          "name": "",
          "type": "address"
        }
      ],
      "stateMutability": "view",
      "type": "function"
    },
    {
      "inputs": [
        {
          "internalType": "uint256[]",
          "name": "_tokenIds",
          "type": "uint256[]"
        },
        {
          "internalType": "uint256[]",
          "name": "_tokenAmounts",
          "type": "uint256[]"
        },
        {
          "internalType": "string",
          "name": "_uri",
          "type": "string"
        }
      ],
      "name": "generateInvoice",
      "outputs": [],
      "stateMutability": "nonpayable",
      "type": "function"
    },
    {
      "inputs": [
        {
          "internalType": "uint256[]",
          "name": "_tokenIds",
          "type": "uint256[]"
        },
        {
          "internalType": "uint256[]",
          "name": "_tokenAmounts",
          "type": "uint256[]"
        },
        {
          "internalType": "string",
          "name": "_proof",
          "type": "string"
        }
      ],
      "name": "generatePurchaseOrder",
      "outputs": [],
      "stateMutability": "nonpayable",
      "type": "function"
    },
    {
      "inputs": [],
      "name": "invoiceLength",
      "outputs": [
        {
          "internalType": "uint256",
          "name": "",
          "type": "uint256"
        }
      ],
      "stateMutability": "view",
      "type": "function"
    },
    {
      "inputs": [
        {
          "internalType": "address",
          "name": "account",
          "type": "address"
        },
        {
          "internalType": "address",
          "name": "operator",
          "type": "address"
        }
      ],
      "name": "isApprovedForAll",
      "outputs": [
        {
          "internalType": "bool",
          "name": "",
          "type": "bool"
        }
      ],
      "stateMutability": "view",
      "type": "function"
    },
    {
      "inputs": [],
      "name": "itemsLength",
      "outputs": [
        {
          "internalType": "uint256",
          "name": "",
          "type": "uint256"
        }
      ],
      "stateMutability": "view",
      "type": "function"
    },
    {
      "inputs": [
        {
          "internalType": "uint256[]",
          "name": "_tokenIds",
          "type": "uint256[]"
        },
        {
          "internalType": "uint256[]",
          "name": "_tokenAmounts",
          "type": "uint256[]"
        }
      ],
      "name": "mintBatchInventory",
      "outputs": [],
      "stateMutability": "nonpayable",
      "type": "function"
    },
    {
      "inputs": [
        {
          "internalType": "address",
          "name": "",
          "type": "address"
        },
        {
          "internalType": "address",
          "name": "",
          "type": "address"
        },
        {
          "internalType": "uint256[]",
          "name": "",
          "type": "uint256[]"
        },
        {
          "internalType": "uint256[]",
          "name": "",
          "type": "uint256[]"
        },
        {
          "internalType": "bytes",
          "name": "",
          "type": "bytes"
        }
      ],
      "name": "onERC1155BatchReceived",
      "outputs": [
        {
          "internalType": "bytes4",
          "name": "",
          "type": "bytes4"
        }
      ],
      "stateMutability": "nonpayable",
      "type": "function"
    },
    {
      "inputs": [
        {
          "internalType": "address",
          "name": "",
          "type": "address"
        },
        {
          "internalType": "address",
          "name": "",
          "type": "address"
        },
        {
          "internalType": "uint256",
          "name": "",
          "type": "uint256"
        },
        {
          "internalType": "uint256",
          "name": "",
          "type": "uint256"
        },
        {
          "internalType": "bytes",
          "name": "",
          "type": "bytes"
        }
      ],
      "name": "onERC1155Received",
      "outputs": [
        {
          "internalType": "bytes4",
          "name": "",
          "type": "bytes4"
        }
      ],
      "stateMutability": "nonpayable",
      "type": "function"
    },
    {
      "inputs": [],
      "name": "owner",
      "outputs": [
        {
          "internalType": "address",
          "name": "",
          "type": "address"
        }
      ],
      "stateMutability": "view",
      "type": "function"
    },
    {
      "inputs": [],
      "name": "purchaseLength",
      "outputs": [
        {
          "internalType": "uint256",
          "name": "",
          "type": "uint256"
        }
      ],
      "stateMutability": "view",
      "type": "function"
    },
    {
      "inputs": [],
      "name": "renounceOwnership",
      "outputs": [],
      "stateMutability": "nonpayable",
      "type": "function"
    },
    {
      "inputs": [
        {
          "internalType": "address",
          "name": "from",
          "type": "address"
        },
        {
          "internalType": "address",
          "name": "to",
          "type": "address"
        },
        {
          "internalType": "uint256[]",
          "name": "ids",
          "type": "uint256[]"
        },
        {
          "internalType": "uint256[]",
          "name": "amounts",
          "type": "uint256[]"
        },
        {
          "internalType": "bytes",
          "name": "data",
          "type": "bytes"
        }
      ],
      "name": "safeBatchTransferFrom",
      "outputs": [],
      "stateMutability": "nonpayable",
      "type": "function"
    },
    {
      "inputs": [
        {
          "internalType": "address",
          "name": "from",
          "type": "address"
        },
        {
          "internalType": "address",
          "name": "to",
          "type": "address"
        },
        {
          "internalType": "uint256",
          "name": "id",
          "type": "uint256"
        },
        {
          "internalType": "uint256",
          "name": "amount",
          "type": "uint256"
        },
        {
          "internalType": "bytes",
          "name": "data",
          "type": "bytes"
        }
      ],
      "name": "safeTransferFrom",
      "outputs": [],
      "stateMutability": "nonpayable",
      "type": "function"
    },
    {
      "inputs": [
        {
          "internalType": "address",
          "name": "operator",
          "type": "address"
        },
        {
          "internalType": "bool",
          "name": "approved",
          "type": "bool"
        }
      ],
      "name": "setApprovalForAll",
      "outputs": [],
      "stateMutability": "nonpayable",
      "type": "function"
    },
    {
      "inputs": [
        {
          "internalType": "bytes4",
          "name": "interfaceId",
          "type": "bytes4"
        }
      ],
      "name": "supportsInterface",
      "outputs": [
        {
          "internalType": "bool",
          "name": "",
          "type": "bool"
        }
      ],
      "stateMutability": "view",
      "type": "function"
    },
    {
      "inputs": [
        {
          "internalType": "address",
          "name": "newOwner",
          "type": "address"
        }
      ],
      "name": "transferOwnership",
      "outputs": [],
      "stateMutability": "nonpayable",
      "type": "function"
    },
    {
      "inputs": [
        {
          "internalType": "uint256",
          "name": "_uri",
          "type": "uint256"
        }
      ],
      "name": "uri",
      "outputs": [
        {
          "internalType": "string",
          "name": "",
          "type": "string"
        }
      ],
      "stateMutability": "view",
      "type": "function"
    }
  ],
  "bytecode": "0x60806040523480156200001157600080fd5b506040516200478638038062004786833981810160405281019062000037919062000426565b60405180602001604052806000815250620000676200005b620000d360201b60201c565b620000db60201b60201c565b62000078816200019f60201b60201c565b5081600460006101000a81548173ffffffffffffffffffffffffffffffffffffffff021916908373ffffffffffffffffffffffffffffffffffffffff160217905550620000cb81620001bb60201b60201c565b5050620005ed565b600033905090565b60008060009054906101000a900473ffffffffffffffffffffffffffffffffffffffff169050816000806101000a81548173ffffffffffffffffffffffffffffffffffffffff021916908373ffffffffffffffffffffffffffffffffffffffff1602179055508173ffffffffffffffffffffffffffffffffffffffff168173ffffffffffffffffffffffffffffffffffffffff167f8be0079c531659141344cd1fd0a4f28419497f9722a3daafe3b4186f6b6457e060405160405180910390a35050565b8060039080519060200190620001b79291906200030c565b5050565b620001cb6200025260201b60201c565b600073ffffffffffffffffffffffffffffffffffffffff168173ffffffffffffffffffffffffffffffffffffffff1614156200023e576040517f08c379a00000000000000000000000000000000000000000000000000000000081526004016200023590620004f4565b60405180910390fd5b6200024f81620000db60201b60201c565b50565b62000262620000d360201b60201c565b73ffffffffffffffffffffffffffffffffffffffff1662000288620002e360201b60201c565b73ffffffffffffffffffffffffffffffffffffffff1614620002e1576040517f08c379a0000000000000000000000000000000000000000000000000000000008152600401620002d89062000566565b60405180910390fd5b565b60008060009054906101000a900473ffffffffffffffffffffffffffffffffffffffff16905090565b8280546200031a90620005b7565b90600052602060002090601f0160209004810192826200033e57600085556200038a565b82601f106200035957805160ff19168380011785556200038a565b828001600101855582156200038a579182015b82811115620003895782518255916020019190600101906200036c565b5b5090506200039991906200039d565b5090565b5b80821115620003b85760008160009055506001016200039e565b5090565b600080fd5b600073ffffffffffffffffffffffffffffffffffffffff82169050919050565b6000620003ee82620003c1565b9050919050565b6200040081620003e1565b81146200040c57600080fd5b50565b6000815190506200042081620003f5565b92915050565b6000806040838503121562000440576200043f620003bc565b5b600062000450858286016200040f565b925050602062000463858286016200040f565b9150509250929050565b600082825260208201905092915050565b7f4f776e61626c653a206e6577206f776e657220697320746865207a65726f206160008201527f6464726573730000000000000000000000000000000000000000000000000000602082015250565b6000620004dc6026836200046d565b9150620004e9826200047e565b604082019050919050565b600060208201905081810360008301526200050f81620004cd565b9050919050565b7f4f776e61626c653a2063616c6c6572206973206e6f7420746865206f776e6572600082015250565b60006200054e6020836200046d565b91506200055b8262000516565b602082019050919050565b6000602082019050818103600083015262000581816200053f565b9050919050565b7f4e487b7100000000000000000000000000000000000000000000000000000000600052602260045260246000fd5b60006002820490506001821680620005d057607f821691505b60208210811415620005e757620005e662000588565b5b50919050565b61418980620005fd6000396000f3fe608060405234801561001057600080fd5b50600436106101415760003560e01c8063b73da62d116100b8578063f23a6e611161007c578063f23a6e6114610372578063f242432a146103a2578063f2fde38b146103be578063f4546cb2146103da578063f863208d146103f6578063fcc7e4c61461041457610141565b8063b73da62d146102bc578063bc197c81146102d8578063c45a015514610308578063e985e9c514610326578063ebe5623d1461035657610141565b80634e1273f41161010a5780634e1273f41461021057806367e1923a14610240578063715018a61461025c5780638da5cb5b14610266578063922741df14610284578063a22cb465146102a057610141565b8062fdd58e1461014657806301ffc9a7146101765780630e89341c146101a65780632a5f7153146101d65780632eb2c2d6146101f4575b600080fd5b610160600480360381019061015b91906126ca565b610432565b60405161016d9190612719565b60405180910390f35b610190600480360381019061018b919061278c565b6104fc565b60405161019d91906127d4565b60405180910390f35b6101c060048036038101906101bb91906127ef565b61050e565b6040516101cd91906128b5565b60405180910390f35b6101de6105b3565b6040516101eb9190612719565b60405180910390f35b61020e60048036038101906102099190612ad4565b6105b9565b005b61022a60048036038101906102259190612c66565b61065a565b6040516102379190612d9c565b60405180910390f35b61025a60048036038101906102559190612e19565b610773565b005b61026461098d565b005b61026e6109a1565b60405161027b9190612ea9565b60405180910390f35b61029e60048036038101906102999190612e19565b6109ca565b005b6102ba60048036038101906102b59190612ef0565b610aad565b005b6102d660048036038101906102d19190612f86565b610ac3565b005b6102f260048036038101906102ed9190612ad4565b610bfb565b6040516102ff9190613049565b60405180910390f35b610310610c10565b60405161031d91906130c3565b60405180910390f35b610340600480360381019061033b91906130de565b610c36565b60405161034d91906127d4565b60405180910390f35b610370600480360381019061036b91906131bf565b610cca565b005b61038c60048036038101906103879190613270565b610ded565b6040516103999190613049565b60405180910390f35b6103bc60048036038101906103b79190613270565b610e02565b005b6103d860048036038101906103d39190613307565b610ea3565b005b6103f460048036038101906103ef9190612f86565b610f27565b005b6103fe61116b565b60405161040b9190612719565b60405180910390f35b61041c611171565b6040516104299190612719565b60405180910390f35b60008073ffffffffffffffffffffffffffffffffffffffff168373ffffffffffffffffffffffffffffffffffffffff1614156104a3576040517f08c379a000000000000000000000000000000000000000000000000000000000815260040161049a906133a6565b60405180910390fd5b6001600083815260200190815260200160002060008473ffffffffffffffffffffffffffffffffffffffff1673ffffffffffffffffffffffffffffffffffffffff16815260200190815260200160002054905092915050565b600061050782611177565b9050919050565b606060086000838152602001908152602001600020805461052e906133f5565b80601f016020809104026020016040519081016040528092919081815260200182805461055a906133f5565b80156105a75780601f1061057c576101008083540402835291602001916105a7565b820191906000526020600020905b81548152906001019060200180831161058a57829003601f168201915b50505050509050919050565b60075481565b6105c16111f1565b73ffffffffffffffffffffffffffffffffffffffff168573ffffffffffffffffffffffffffffffffffffffff1614806106075750610606856106016111f1565b610c36565b5b610646576040517f08c379a000000000000000000000000000000000000000000000000000000000815260040161063d90613499565b60405180910390fd5b61065385858585856111f9565b5050505050565b606081518351146106a0576040517f08c379a00000000000000000000000000000000000000000000000000000000081526004016106979061352b565b60405180910390fd5b6000835167ffffffffffffffff8111156106bd576106bc6128dc565b5b6040519080825280602002602001820160405280156106eb5781602001602082028036833780820191505090505b50905060005b8451811015610768576107388582815181106107105761070f61354b565b5b602002602001015185838151811061072b5761072a61354b565b5b6020026020010151610432565b82828151811061074b5761074a61354b565b5b60200260200101818152505080610761906135a9565b90506106f1565b508091505092915050565b61077b61151e565b8383905082829050146107c3576040517f08c379a00000000000000000000000000000000000000000000000000000000081526004016107ba90613664565b60405180910390fd5b600084849050905060005b818110156108e8576108d530600a60008989868181106107f1576107f061354b565b5b90506020020135815260200190815260200160002080548060200260200160405190810160405280929190818152602001828054801561085057602002820191906000526020600020905b81548152602001906001019080831161083c575b5050505050600b60008a8a8781811061086c5761086b61354b565b5b9050602002013581526020019081526020016000208054806020026020016040519081016040528092919081815260200182805480156108cb57602002820191906000526020600020905b8154815260200190600101908083116108b7575b505050505061159c565b80806108e0906135a9565b9150506107ce565b5061098630868680806020026020016040519081016040528093929190818152602001838360200280828437600081840152601f19601f82011690508083019250505050505050858580806020026020016040519081016040528093929190818152602001838360200280828437600081840152601f19601f820116905080830192505050505050506040518060200160405280600081525061186d565b5050505050565b61099561151e565b61099f6000611a9b565b565b60008060009054906101000a900473ffffffffffffffffffffffffffffffffffffffff16905090565b6109d261151e565b838390508282905014610a1a576040517f08c379a0000000000000000000000000000000000000000000000000000000008152600401610a1190613664565b60405180910390fd5b610aa730858580806020026020016040519081016040528093929190818152602001838360200280828437600081840152601f19601f82011690508083019250505050505050848480806020026020016040519081016040528093929190818152602001838360200280828437600081840152601f19601f8201169050808301925050505050505061159c565b50505050565b610abf610ab86111f1565b8383611b5f565b5050565b610acb61151e565b858590508484905014610b13576040517f08c379a0000000000000000000000000000000000000000000000000000000008152600401610b0a906136f6565b60405180910390fd5b85859050600960006005548152602001908152602001600020819055508585600a600060055481526020019081526020016000209190610b54929190612532565b508383600b600060055481526020019081526020016000209190610b79929190612532565b5081816008600060055481526020019081526020016000209190610b9e92919061257f565b506005547f2931fd16a2d011bf618da74e9fc397f94aa1807d8916289525a36f0a7d2f12948383604051610bd3929190613743565b60405180910390a260056000815480929190610bee906135a9565b9190505550505050505050565b600063bc197c8160e01b905095945050505050565b600460009054906101000a900473ffffffffffffffffffffffffffffffffffffffff1681565b6000600260008473ffffffffffffffffffffffffffffffffffffffff1673ffffffffffffffffffffffffffffffffffffffff16815260200190815260200160002060008373ffffffffffffffffffffffffffffffffffffffff1673ffffffffffffffffffffffffffffffffffffffff16815260200190815260200160002060009054906101000a900460ff16905092915050565b848490508383905014610d12576040517f08c379a0000000000000000000000000000000000000000000000000000000008152600401610d0990613664565b60405180910390fd5b610daf30868680806020026020016040519081016040528093929190818152602001838360200280828437600081840152601f19601f82011690508083019250505050505050858580806020026020016040519081016040528093929190818152602001838360200280828437600081840152601f19601f820116905080830192505050505050506040518060200160405280600081525061186d565b7f1890812aad4cf5bf52d81d3c1302a26d5abf754379bab88f8b7f66929ba89e7881604051610dde91906128b5565b60405180910390a15050505050565b600063f23a6e6160e01b905095945050505050565b610e0a6111f1565b73ffffffffffffffffffffffffffffffffffffffff168573ffffffffffffffffffffffffffffffffffffffff161480610e505750610e4f85610e4a6111f1565b610c36565b5b610e8f576040517f08c379a0000000000000000000000000000000000000000000000000000000008152600401610e8690613499565b60405180910390fd5b610e9c8585858585611ccc565b5050505050565b610eab61151e565b600073ffffffffffffffffffffffffffffffffffffffff168173ffffffffffffffffffffffffffffffffffffffff161415610f1b576040517f08c379a0000000000000000000000000000000000000000000000000000000008152600401610f12906137d9565b60405180910390fd5b610f2481611a9b565b50565b858590508484905014610f6f576040517f08c379a0000000000000000000000000000000000000000000000000000000008152600401610f6690613664565b60405180910390fd5b610ffc30878780806020026020016040519081016040528093929190818152602001838360200280828437600081840152601f19601f82011690508083019250505050505050868680806020026020016040519081016040528093929190818152602001838360200280828437600081840152601f19601f8201169050808301925050505050505061159c565b7fc1b610f19d8ea385f3a1230438dce8639cdce5ab33232bba66a0984bec765436828260405161102d929190613743565b60405180910390a160008060001b9050600085859050905060008167ffffffffffffffff811115611061576110606128dc565b5b60405190808252806020026020018201604052801561108f5781602001602082028036833780820191505090505b50905060005b828110156110d057838282815181106110b1576110b061354b565b5b60200260200101818152505080806110c8906135a9565b915050611095565b50600460009054906101000a900473ffffffffffffffffffffffffffffffffffffffff1673ffffffffffffffffffffffffffffffffffffffff166371e3dcf933836040518363ffffffff1660e01b815260040161112e9291906138c1565b600060405180830381600087803b15801561114857600080fd5b505af115801561115c573d6000803e3d6000fd5b50505050505050505050505050565b60055481565b60065481565b60007f4e2312e0000000000000000000000000000000000000000000000000000000007bffffffffffffffffffffffffffffffffffffffffffffffffffffffff1916827bffffffffffffffffffffffffffffffffffffffffffffffffffffffff191614806111ea57506111e982611f6b565b5b9050919050565b600033905090565b815183511461123d576040517f08c379a000000000000000000000000000000000000000000000000000000000815260040161123490613963565b60405180910390fd5b600073ffffffffffffffffffffffffffffffffffffffff168473ffffffffffffffffffffffffffffffffffffffff1614156112ad576040517f08c379a00000000000000000000000000000000000000000000000000000000081526004016112a4906139f5565b60405180910390fd5b60006112b76111f1565b90506112c781878787878761204d565b60005b845181101561147b5760008582815181106112e8576112e761354b565b5b6020026020010151905060008583815181106113075761130661354b565b5b6020026020010151905060006001600084815260200190815260200160002060008b73ffffffffffffffffffffffffffffffffffffffff1673ffffffffffffffffffffffffffffffffffffffff168152602001908152602001600020549050818110156113a9576040517f08c379a00000000000000000000000000000000000000000000000000000000081526004016113a090613a87565b60405180910390fd5b8181036001600085815260200190815260200160002060008c73ffffffffffffffffffffffffffffffffffffffff1673ffffffffffffffffffffffffffffffffffffffff16815260200190815260200160002081905550816001600085815260200190815260200160002060008b73ffffffffffffffffffffffffffffffffffffffff1673ffffffffffffffffffffffffffffffffffffffff16815260200190815260200160002060008282546114609190613aa7565b9250508190555050505080611474906135a9565b90506112ca565b508473ffffffffffffffffffffffffffffffffffffffff168673ffffffffffffffffffffffffffffffffffffffff168273ffffffffffffffffffffffffffffffffffffffff167f4a39dc06d4c0dbc64b70af90fd698a233a518aa5d07e595d983b8c0526c8f7fb87876040516114f2929190613afd565b60405180910390a4611508818787878787612055565b61151681878787878761205d565b505050505050565b6115266111f1565b73ffffffffffffffffffffffffffffffffffffffff166115446109a1565b73ffffffffffffffffffffffffffffffffffffffff161461159a576040517f08c379a000000000000000000000000000000000000000000000000000000000815260040161159190613b80565b60405180910390fd5b565b600073ffffffffffffffffffffffffffffffffffffffff168373ffffffffffffffffffffffffffffffffffffffff16141561160c576040517f08c379a000000000000000000000000000000000000000000000000000000000815260040161160390613c12565b60405180910390fd5b8051825114611650576040517f08c379a000000000000000000000000000000000000000000000000000000000815260040161164790613963565b60405180910390fd5b600061165a6111f1565b905061167a8185600086866040518060200160405280600081525061204d565b60005b83518110156117c957600084828151811061169b5761169a61354b565b5b6020026020010151905060008483815181106116ba576116b961354b565b5b6020026020010151905060006001600084815260200190815260200160002060008973ffffffffffffffffffffffffffffffffffffffff1673ffffffffffffffffffffffffffffffffffffffff1681526020019081526020016000205490508181101561175c576040517f08c379a000000000000000000000000000000000000000000000000000000000815260040161175390613ca4565b60405180910390fd5b8181036001600085815260200190815260200160002060008a73ffffffffffffffffffffffffffffffffffffffff1673ffffffffffffffffffffffffffffffffffffffff1681526020019081526020016000208190555050505080806117c1906135a9565b91505061167d565b50600073ffffffffffffffffffffffffffffffffffffffff168473ffffffffffffffffffffffffffffffffffffffff168273ffffffffffffffffffffffffffffffffffffffff167f4a39dc06d4c0dbc64b70af90fd698a233a518aa5d07e595d983b8c0526c8f7fb8686604051611841929190613afd565b60405180910390a461186781856000868660405180602001604052806000815250612055565b50505050565b600073ffffffffffffffffffffffffffffffffffffffff168473ffffffffffffffffffffffffffffffffffffffff1614156118dd576040517f08c379a00000000000000000000000000000000000000000000000000000000081526004016118d490613d36565b60405180910390fd5b8151835114611921576040517f08c379a000000000000000000000000000000000000000000000000000000000815260040161191890613963565b60405180910390fd5b600061192b6111f1565b905061193c8160008787878761204d565b60005b84518110156119f65783818151811061195b5761195a61354b565b5b60200260200101516001600087848151811061197a5761197961354b565b5b6020026020010151815260200190815260200160002060008873ffffffffffffffffffffffffffffffffffffffff1673ffffffffffffffffffffffffffffffffffffffff16815260200190815260200160002060008282546119dc9190613aa7565b9250508190555080806119ee906135a9565b91505061193f565b508473ffffffffffffffffffffffffffffffffffffffff16600073ffffffffffffffffffffffffffffffffffffffff168273ffffffffffffffffffffffffffffffffffffffff167f4a39dc06d4c0dbc64b70af90fd698a233a518aa5d07e595d983b8c0526c8f7fb8787604051611a6e929190613afd565b60405180910390a4611a8581600087878787612055565b611a948160008787878761205d565b5050505050565b60008060009054906101000a900473ffffffffffffffffffffffffffffffffffffffff169050816000806101000a81548173ffffffffffffffffffffffffffffffffffffffff021916908373ffffffffffffffffffffffffffffffffffffffff1602179055508173ffffffffffffffffffffffffffffffffffffffff168173ffffffffffffffffffffffffffffffffffffffff167f8be0079c531659141344cd1fd0a4f28419497f9722a3daafe3b4186f6b6457e060405160405180910390a35050565b8173ffffffffffffffffffffffffffffffffffffffff168373ffffffffffffffffffffffffffffffffffffffff161415611bce576040517f08c379a0000000000000000000000000000000000000000000000000000000008152600401611bc590613dc8565b60405180910390fd5b80600260008573ffffffffffffffffffffffffffffffffffffffff1673ffffffffffffffffffffffffffffffffffffffff16815260200190815260200160002060008473ffffffffffffffffffffffffffffffffffffffff1673ffffffffffffffffffffffffffffffffffffffff16815260200190815260200160002060006101000a81548160ff0219169083151502179055508173ffffffffffffffffffffffffffffffffffffffff168373ffffffffffffffffffffffffffffffffffffffff167f17307eab39ab6107e8899845ad3d59bd9653f200f220920489ca2b5937696c3183604051611cbf91906127d4565b60405180910390a3505050565b600073ffffffffffffffffffffffffffffffffffffffff168473ffffffffffffffffffffffffffffffffffffffff161415611d3c576040517f08c379a0000000000000000000000000000000000000000000000000000000008152600401611d33906139f5565b60405180910390fd5b6000611d466111f1565b90506000611d5385612244565b90506000611d6085612244565b9050611d7083898985858961204d565b60006001600088815260200190815260200160002060008a73ffffffffffffffffffffffffffffffffffffffff1673ffffffffffffffffffffffffffffffffffffffff16815260200190815260200160002054905085811015611e08576040517f08c379a0000000000000000000000000000000000000000000000000000000008152600401611dff90613a87565b60405180910390fd5b8581036001600089815260200190815260200160002060008b73ffffffffffffffffffffffffffffffffffffffff1673ffffffffffffffffffffffffffffffffffffffff16815260200190815260200160002081905550856001600089815260200190815260200160002060008a73ffffffffffffffffffffffffffffffffffffffff1673ffffffffffffffffffffffffffffffffffffffff1681526020019081526020016000206000828254611ebf9190613aa7565b925050819055508773ffffffffffffffffffffffffffffffffffffffff168973ffffffffffffffffffffffffffffffffffffffff168573ffffffffffffffffffffffffffffffffffffffff167fc3d58168c5ae7397731d063d5bbf3d657854427343f4c083240f7aacaa2d0f628a8a604051611f3c929190613de8565b60405180910390a4611f52848a8a86868a612055565b611f60848a8a8a8a8a6122be565b505050505050505050565b60007fd9b67a26000000000000000000000000000000000000000000000000000000007bffffffffffffffffffffffffffffffffffffffffffffffffffffffff1916827bffffffffffffffffffffffffffffffffffffffffffffffffffffffff1916148061203657507f0e89341c000000000000000000000000000000000000000000000000000000007bffffffffffffffffffffffffffffffffffffffffffffffffffffffff1916827bffffffffffffffffffffffffffffffffffffffffffffffffffffffff1916145b806120465750612045826124a5565b5b9050919050565b505050505050565b505050505050565b61207c8473ffffffffffffffffffffffffffffffffffffffff1661250f565b1561223c578373ffffffffffffffffffffffffffffffffffffffff1663bc197c8187878686866040518663ffffffff1660e01b81526004016120c2959493929190613e66565b602060405180830381600087803b1580156120dc57600080fd5b505af192505050801561210d57506040513d601f19601f8201168201806040525081019061210a9190613ee3565b60015b6121b357612119613f1d565b806308c379a01415612176575061212e613f3f565b806121395750612178565b806040517f08c379a000000000000000000000000000000000000000000000000000000000815260040161216d91906128b5565b60405180910390fd5b505b6040517f08c379a00000000000000000000000000000000000000000000000000000000081526004016121aa90614047565b60405180910390fd5b63bc197c8160e01b7bffffffffffffffffffffffffffffffffffffffffffffffffffffffff1916817bffffffffffffffffffffffffffffffffffffffffffffffffffffffff19161461223a576040517f08c379a0000000000000000000000000000000000000000000000000000000008152600401612231906140d9565b60405180910390fd5b505b505050505050565b60606000600167ffffffffffffffff811115612263576122626128dc565b5b6040519080825280602002602001820160405280156122915781602001602082028036833780820191505090505b50905082816000815181106122a9576122a861354b565b5b60200260200101818152505080915050919050565b6122dd8473ffffffffffffffffffffffffffffffffffffffff1661250f565b1561249d578373ffffffffffffffffffffffffffffffffffffffff1663f23a6e6187878686866040518663ffffffff1660e01b81526004016123239594939291906140f9565b602060405180830381600087803b15801561233d57600080fd5b505af192505050801561236e57506040513d601f19601f8201168201806040525081019061236b9190613ee3565b60015b6124145761237a613f1d565b806308c379a014156123d7575061238f613f3f565b8061239a57506123d9565b806040517f08c379a00000000000000000000000000000000000000000000000000000000081526004016123ce91906128b5565b60405180910390fd5b505b6040517f08c379a000000000000000000000000000000000000000000000000000000000815260040161240b90614047565b60405180910390fd5b63f23a6e6160e01b7bffffffffffffffffffffffffffffffffffffffffffffffffffffffff1916817bffffffffffffffffffffffffffffffffffffffffffffffffffffffff19161461249b576040517f08c379a0000000000000000000000000000000000000000000000000000000008152600401612492906140d9565b60405180910390fd5b505b505050505050565b60007f01ffc9a7000000000000000000000000000000000000000000000000000000007bffffffffffffffffffffffffffffffffffffffffffffffffffffffff1916827bffffffffffffffffffffffffffffffffffffffffffffffffffffffff1916149050919050565b6000808273ffffffffffffffffffffffffffffffffffffffff163b119050919050565b82805482825590600052602060002090810192821561256e579160200282015b8281111561256d578235825591602001919060010190612552565b5b50905061257b9190612605565b5090565b82805461258b906133f5565b90600052602060002090601f0160209004810192826125ad57600085556125f4565b82601f106125c657803560ff19168380011785556125f4565b828001600101855582156125f4579182015b828111156125f35782358255916020019190600101906125d8565b5b5090506126019190612605565b5090565b5b8082111561261e576000816000905550600101612606565b5090565b6000604051905090565b600080fd5b600080fd5b600073ffffffffffffffffffffffffffffffffffffffff82169050919050565b600061266182612636565b9050919050565b61267181612656565b811461267c57600080fd5b50565b60008135905061268e81612668565b92915050565b6000819050919050565b6126a781612694565b81146126b257600080fd5b50565b6000813590506126c48161269e565b92915050565b600080604083850312156126e1576126e061262c565b5b60006126ef8582860161267f565b9250506020612700858286016126b5565b9150509250929050565b61271381612694565b82525050565b600060208201905061272e600083018461270a565b92915050565b60007fffffffff0000000000000000000000000000000000000000000000000000000082169050919050565b61276981612734565b811461277457600080fd5b50565b60008135905061278681612760565b92915050565b6000602082840312156127a2576127a161262c565b5b60006127b084828501612777565b91505092915050565b60008115159050919050565b6127ce816127b9565b82525050565b60006020820190506127e960008301846127c5565b92915050565b6000602082840312156128055761280461262c565b5b6000612813848285016126b5565b91505092915050565b600081519050919050565b600082825260208201905092915050565b60005b8381101561285657808201518184015260208101905061283b565b83811115612865576000848401525b50505050565b6000601f19601f8301169050919050565b60006128878261281c565b6128918185612827565b93506128a1818560208601612838565b6128aa8161286b565b840191505092915050565b600060208201905081810360008301526128cf818461287c565b905092915050565b600080fd5b7f4e487b7100000000000000000000000000000000000000000000000000000000600052604160045260246000fd5b6129148261286b565b810181811067ffffffffffffffff82111715612933576129326128dc565b5b80604052505050565b6000612946612622565b9050612952828261290b565b919050565b600067ffffffffffffffff821115612972576129716128dc565b5b602082029050602081019050919050565b600080fd5b600061299b61299684612957565b61293c565b905080838252602082019050602084028301858111156129be576129bd612983565b5b835b818110156129e757806129d388826126b5565b8452602084019350506020810190506129c0565b5050509392505050565b600082601f830112612a0657612a056128d7565b5b8135612a16848260208601612988565b91505092915050565b600080fd5b600067ffffffffffffffff821115612a3f57612a3e6128dc565b5b612a488261286b565b9050602081019050919050565b82818337600083830152505050565b6000612a77612a7284612a24565b61293c565b905082815260208101848484011115612a9357612a92612a1f565b5b612a9e848285612a55565b509392505050565b600082601f830112612abb57612aba6128d7565b5b8135612acb848260208601612a64565b91505092915050565b600080600080600060a08688031215612af057612aef61262c565b5b6000612afe8882890161267f565b9550506020612b0f8882890161267f565b945050604086013567ffffffffffffffff811115612b3057612b2f612631565b5b612b3c888289016129f1565b935050606086013567ffffffffffffffff811115612b5d57612b5c612631565b5b612b69888289016129f1565b925050608086013567ffffffffffffffff811115612b8a57612b89612631565b5b612b9688828901612aa6565b9150509295509295909350565b600067ffffffffffffffff821115612bbe57612bbd6128dc565b5b602082029050602081019050919050565b6000612be2612bdd84612ba3565b61293c565b90508083825260208201905060208402830185811115612c0557612c04612983565b5b835b81811015612c2e5780612c1a888261267f565b845260208401935050602081019050612c07565b5050509392505050565b600082601f830112612c4d57612c4c6128d7565b5b8135612c5d848260208601612bcf565b91505092915050565b60008060408385031215612c7d57612c7c61262c565b5b600083013567ffffffffffffffff811115612c9b57612c9a612631565b5b612ca785828601612c38565b925050602083013567ffffffffffffffff811115612cc857612cc7612631565b5b612cd4858286016129f1565b9150509250929050565b600081519050919050565b600082825260208201905092915050565b6000819050602082019050919050565b612d1381612694565b82525050565b6000612d258383612d0a565b60208301905092915050565b6000602082019050919050565b6000612d4982612cde565b612d538185612ce9565b9350612d5e83612cfa565b8060005b83811015612d8f578151612d768882612d19565b9750612d8183612d31565b925050600181019050612d62565b5085935050505092915050565b60006020820190508181036000830152612db68184612d3e565b905092915050565b600080fd5b60008083601f840112612dd957612dd86128d7565b5b8235905067ffffffffffffffff811115612df657612df5612dbe565b5b602083019150836020820283011115612e1257612e11612983565b5b9250929050565b60008060008060408587031215612e3357612e3261262c565b5b600085013567ffffffffffffffff811115612e5157612e50612631565b5b612e5d87828801612dc3565b9450945050602085013567ffffffffffffffff811115612e8057612e7f612631565b5b612e8c87828801612dc3565b925092505092959194509250565b612ea381612656565b82525050565b6000602082019050612ebe6000830184612e9a565b92915050565b612ecd816127b9565b8114612ed857600080fd5b50565b600081359050612eea81612ec4565b92915050565b60008060408385031215612f0757612f0661262c565b5b6000612f158582860161267f565b9250506020612f2685828601612edb565b9150509250929050565b60008083601f840112612f4657612f456128d7565b5b8235905067ffffffffffffffff811115612f6357612f62612dbe565b5b602083019150836001820283011115612f7f57612f7e612983565b5b9250929050565b60008060008060008060608789031215612fa357612fa261262c565b5b600087013567ffffffffffffffff811115612fc157612fc0612631565b5b612fcd89828a01612dc3565b9650965050602087013567ffffffffffffffff811115612ff057612fef612631565b5b612ffc89828a01612dc3565b9450945050604087013567ffffffffffffffff81111561301f5761301e612631565b5b61302b89828a01612f30565b92509250509295509295509295565b61304381612734565b82525050565b600060208201905061305e600083018461303a565b92915050565b6000819050919050565b600061308961308461307f84612636565b613064565b612636565b9050919050565b600061309b8261306e565b9050919050565b60006130ad82613090565b9050919050565b6130bd816130a2565b82525050565b60006020820190506130d860008301846130b4565b92915050565b600080604083850312156130f5576130f461262c565b5b60006131038582860161267f565b92505060206131148582860161267f565b9150509250929050565b600067ffffffffffffffff821115613139576131386128dc565b5b6131428261286b565b9050602081019050919050565b600061316261315d8461311e565b61293c565b90508281526020810184848401111561317e5761317d612a1f565b5b613189848285612a55565b509392505050565b600082601f8301126131a6576131a56128d7565b5b81356131b684826020860161314f565b91505092915050565b6000806000806000606086880312156131db576131da61262c565b5b600086013567ffffffffffffffff8111156131f9576131f8612631565b5b61320588828901612dc3565b9550955050602086013567ffffffffffffffff81111561322857613227612631565b5b61323488828901612dc3565b9350935050604086013567ffffffffffffffff81111561325757613256612631565b5b61326388828901613191565b9150509295509295909350565b600080600080600060a0868803121561328c5761328b61262c565b5b600061329a8882890161267f565b95505060206132ab8882890161267f565b94505060406132bc888289016126b5565b93505060606132cd888289016126b5565b925050608086013567ffffffffffffffff8111156132ee576132ed612631565b5b6132fa88828901612aa6565b9150509295509295909350565b60006020828403121561331d5761331c61262c565b5b600061332b8482850161267f565b91505092915050565b7f455243313135353a2061646472657373207a65726f206973206e6f742061207660008201527f616c6964206f776e657200000000000000000000000000000000000000000000602082015250565b6000613390602a83612827565b915061339b82613334565b604082019050919050565b600060208201905081810360008301526133bf81613383565b9050919050565b7f4e487b7100000000000000000000000000000000000000000000000000000000600052602260045260246000fd5b6000600282049050600182168061340d57607f821691505b60208210811415613421576134206133c6565b5b50919050565b7f455243313135353a2063616c6c6572206973206e6f7420746f6b656e206f776e60008201527f6572206e6f7220617070726f7665640000000000000000000000000000000000602082015250565b6000613483602f83612827565b915061348e82613427565b604082019050919050565b600060208201905081810360008301526134b281613476565b9050919050565b7f455243313135353a206163636f756e747320616e6420696473206c656e67746860008201527f206d69736d617463680000000000000000000000000000000000000000000000602082015250565b6000613515602983612827565b9150613520826134b9565b604082019050919050565b6000602082019050818103600083015261354481613508565b9050919050565b7f4e487b7100000000000000000000000000000000000000000000000000000000600052603260045260246000fd5b7f4e487b7100000000000000000000000000000000000000000000000000000000600052601160045260246000fd5b60006135b482612694565b91507fffffffffffffffffffffffffffffffffffffffffffffffffffffffffffffffff8214156135e7576135e661357a565b5b600182019050919050565b7f546f6b656e49647320616e6420416d6f756e74732061727261792073686f756c60008201527f642062652073616d652073697a652e0000000000000000000000000000000000602082015250565b600061364e602f83612827565b9150613659826135f2565b604082019050919050565b6000602082019050818103600083015261367d81613641565b9050919050565b7f546f6b656e49647320616e6420616d6f756e74732061727261792073686f756c60008201527f642062652073616d652073697a652e0000000000000000000000000000000000602082015250565b60006136e0602f83612827565b91506136eb82613684565b604082019050919050565b6000602082019050818103600083015261370f816136d3565b9050919050565b60006137228385612827565b935061372f838584612a55565b6137388361286b565b840190509392505050565b6000602082019050818103600083015261375e818486613716565b90509392505050565b7f4f776e61626c653a206e6577206f776e657220697320746865207a65726f206160008201527f6464726573730000000000000000000000000000000000000000000000000000602082015250565b60006137c3602683612827565b91506137ce82613767565b604082019050919050565b600060208201905081810360008301526137f2816137b6565b9050919050565b600081519050919050565b600082825260208201905092915050565b6000819050602082019050919050565b6000819050919050565b61383881613825565b82525050565b600061384a838361382f565b60208301905092915050565b6000602082019050919050565b600061386e826137f9565b6138788185613804565b935061388383613815565b8060005b838110156138b457815161389b888261383e565b97506138a683613856565b925050600181019050613887565b5085935050505092915050565b60006040820190506138d66000830185612e9a565b81810360208301526138e88184613863565b90509392505050565b7f455243313135353a2069647320616e6420616d6f756e7473206c656e6774682060008201527f6d69736d61746368000000000000000000000000000000000000000000000000602082015250565b600061394d602883612827565b9150613958826138f1565b604082019050919050565b6000602082019050818103600083015261397c81613940565b9050919050565b7f455243313135353a207472616e7366657220746f20746865207a65726f20616460008201527f6472657373000000000000000000000000000000000000000000000000000000602082015250565b60006139df602583612827565b91506139ea82613983565b604082019050919050565b60006020820190508181036000830152613a0e816139d2565b9050919050565b7f455243313135353a20696e73756666696369656e742062616c616e636520666f60008201527f72207472616e7366657200000000000000000000000000000000000000000000602082015250565b6000613a71602a83612827565b9150613a7c82613a15565b604082019050919050565b60006020820190508181036000830152613aa081613a64565b9050919050565b6000613ab282612694565b9150613abd83612694565b9250827fffffffffffffffffffffffffffffffffffffffffffffffffffffffffffffffff03821115613af257613af161357a565b5b828201905092915050565b60006040820190508181036000830152613b178185612d3e565b90508181036020830152613b2b8184612d3e565b90509392505050565b7f4f776e61626c653a2063616c6c6572206973206e6f7420746865206f776e6572600082015250565b6000613b6a602083612827565b9150613b7582613b34565b602082019050919050565b60006020820190508181036000830152613b9981613b5d565b9050919050565b7f455243313135353a206275726e2066726f6d20746865207a65726f206164647260008201527f6573730000000000000000000000000000000000000000000000000000000000602082015250565b6000613bfc602383612827565b9150613c0782613ba0565b604082019050919050565b60006020820190508181036000830152613c2b81613bef565b9050919050565b7f455243313135353a206275726e20616d6f756e7420657863656564732062616c60008201527f616e636500000000000000000000000000000000000000000000000000000000602082015250565b6000613c8e602483612827565b9150613c9982613c32565b604082019050919050565b60006020820190508181036000830152613cbd81613c81565b9050919050565b7f455243313135353a206d696e7420746f20746865207a65726f2061646472657360008201527f7300000000000000000000000000000000000000000000000000000000000000602082015250565b6000613d20602183612827565b9150613d2b82613cc4565b604082019050919050565b60006020820190508181036000830152613d4f81613d13565b9050919050565b7f455243313135353a2073657474696e6720617070726f76616c2073746174757360008201527f20666f722073656c660000000000000000000000000000000000000000000000602082015250565b6000613db2602983612827565b9150613dbd82613d56565b604082019050919050565b60006020820190508181036000830152613de181613da5565b9050919050565b6000604082019050613dfd600083018561270a565b613e0a602083018461270a565b9392505050565b600081519050919050565b600082825260208201905092915050565b6000613e3882613e11565b613e428185613e1c565b9350613e52818560208601612838565b613e5b8161286b565b840191505092915050565b600060a082019050613e7b6000830188612e9a565b613e886020830187612e9a565b8181036040830152613e9a8186612d3e565b90508181036060830152613eae8185612d3e565b90508181036080830152613ec28184613e2d565b90509695505050505050565b600081519050613edd81612760565b92915050565b600060208284031215613ef957613ef861262c565b5b6000613f0784828501613ece565b91505092915050565b60008160e01c9050919050565b600060033d1115613f3c5760046000803e613f39600051613f10565b90505b90565b600060443d1015613f4f57613fd2565b613f57612622565b60043d036004823e80513d602482011167ffffffffffffffff82111715613f7f575050613fd2565b808201805167ffffffffffffffff811115613f9d5750505050613fd2565b80602083010160043d038501811115613fba575050505050613fd2565b613fc98260200185018661290b565b82955050505050505b90565b7f455243313135353a207472616e7366657220746f206e6f6e204552433131353560008201527f526563656976657220696d706c656d656e746572000000000000000000000000602082015250565b6000614031603483612827565b915061403c82613fd5565b604082019050919050565b6000602082019050818103600083015261406081614024565b9050919050565b7f455243313135353a204552433131353552656365697665722072656a6563746560008201527f6420746f6b656e73000000000000000000000000000000000000000000000000602082015250565b60006140c3602883612827565b91506140ce82614067565b604082019050919050565b600060208201905081810360008301526140f2816140b6565b9050919050565b600060a08201905061410e6000830188612e9a565b61411b6020830187612e9a565b614128604083018661270a565b614135606083018561270a565b81810360808301526141478184613e2d565b9050969550505050505056fea2646970667358221220311721dc5eb2be82cf1ecfb690961f7c27207e53ba32e9bff689ca00c54d463064736f6c63430008090033",
  "linkReferences": {},
  "deployedLinkReferences": {}
}