{
  "_format": "hh-sol-artifact-1",
  "contractName": "Web3RPFactory",
  "sourceName": "contracts/web3RPFactory.sol",
  "abi": [
    {
      "inputs": [],
      "stateMutability": "nonpayable",
      "type": "constructor"
    },
    {
      "anonymous": false,
      "inputs": [
        {
          "indexed": true,
          "internalType": "address",
          "name": "owner",
          "type": "address"
        },
        {
          "indexed": false,
          "internalType": "address",
          "name": "erp",
          "type": "address"
        }
      ],
      "name": "ERPDeployed",
      "type": "event"
    },
    {
      "inputs": [],
      "name": "deployERP",
      "outputs": [],
      "stateMutability": "nonpayable",
      "type": "function"
    },
    {
      "inputs": [
        {
          "internalType": "address",
          "name": "to",
          "type": "address"
        },
        {
          "internalType": "bytes32[]",
          "name": "vouchers",
          "type": "bytes32[]"
        }
      ],
      "name": "mintReward",
      "outputs": [],
      "stateMutability": "nonpayable",
      "type": "function"
    },
    {
      "inputs": [],
      "name": "rewardToken",
      "outputs": [
        {
          "internalType": "contract ESGReward",
          "name": "",
          "type": "address"
        }
      ],
      "stateMutability": "view",
      "type": "function"
    }
  ],
  "bytecode": "0x608060405234801561001057600080fd5b5060405161001d9061007e565b604051809103906000f080158015610039573d6000803e3d6000fd5b506000806101000a81548173ffffffffffffffffffffffffffffffffffffffff021916908373ffffffffffffffffffffffffffffffffffffffff16021790555061008b565b611aef80614c4083390190565b614ba68061009a6000396000f3fe60806040523480156200001157600080fd5b5060043610620000465760003560e01c806355bf1fdf146200004b57806371e3dcf91462000057578063f7c618c11462000077575b600080fd5b6200005562000099565b005b6200007560048036038101906200006f91906200036f565b62000129565b005b6200008162000260565b60405162000090919062000444565b60405180910390f35b600030604051620000aa9062000284565b620000b6919062000472565b604051809103906000f080158015620000d3573d6000803e3d6000fd5b5090503373ffffffffffffffffffffffffffffffffffffffff167fd687eed927af8cce52f411fe11f988e14f8f3be70fea339fb8603082905e0d89826040516200011e919062000472565b60405180910390a250565b600082829050905060005b81811015620001b7576000801b8484838181106200015757620001566200048f565b5b9050602002013514620001a1576040517f08c379a000000000000000000000000000000000000000000000000000000000815260040162000198906200051f565b60405180910390fd5b8080620001ae906200057a565b91505062000134565b5060008054906101000a900473ffffffffffffffffffffffffffffffffffffffff1673ffffffffffffffffffffffffffffffffffffffff166340c10f198560128686905062000207919062000729565b6040518363ffffffff1660e01b8152600401620002269291906200078b565b600060405180830381600087803b1580156200024157600080fd5b505af115801562000256573d6000803e3d6000fd5b5050505050505050565b60008054906101000a900473ffffffffffffffffffffffffffffffffffffffff1681565b6143b880620007b983390190565b600080fd5b600080fd5b600073ffffffffffffffffffffffffffffffffffffffff82169050919050565b6000620002c9826200029c565b9050919050565b620002db81620002bc565b8114620002e757600080fd5b50565b600081359050620002fb81620002d0565b92915050565b600080fd5b600080fd5b600080fd5b60008083601f84011262000329576200032862000301565b5b8235905067ffffffffffffffff81111562000349576200034862000306565b5b6020830191508360208202830111156200036857620003676200030b565b5b9250929050565b6000806000604084860312156200038b576200038a62000292565b5b60006200039b86828701620002ea565b935050602084013567ffffffffffffffff811115620003bf57620003be62000297565b5b620003cd8682870162000310565b92509250509250925092565b6000819050919050565b600062000404620003fe620003f8846200029c565b620003d9565b6200029c565b9050919050565b60006200041882620003e3565b9050919050565b60006200042c826200040b565b9050919050565b6200043e816200041f565b82525050565b60006020820190506200045b600083018462000433565b92915050565b6200046c81620002bc565b82525050565b600060208201905062000489600083018462000461565b92915050565b7f4e487b7100000000000000000000000000000000000000000000000000000000600052603260045260246000fd5b600082825260208201905092915050565b7f566f7563686572732073686f756c642062652076616c69640000000000000000600082015250565b600062000507601883620004be565b91506200051482620004cf565b602082019050919050565b600060208201905081810360008301526200053a81620004f8565b9050919050565b7f4e487b7100000000000000000000000000000000000000000000000000000000600052601160045260246000fd5b6000819050919050565b6000620005878262000570565b91507fffffffffffffffffffffffffffffffffffffffffffffffffffffffffffffffff821415620005bd57620005bc62000541565b5b600182019050919050565b60008160011c9050919050565b6000808291508390505b60018511156200062757808604811115620005ff57620005fe62000541565b5b60018516156200060f5780820291505b80810290506200061f85620005c8565b9450620005df565b94509492505050565b60008262000642576001905062000715565b8162000652576000905062000715565b81600181146200066b57600281146200067657620006ac565b600191505062000715565b60ff8411156200068b576200068a62000541565b5b8360020a915084821115620006a557620006a462000541565b5b5062000715565b5060208310610133831016604e8410600b8410161715620006e65782820a905083811115620006e057620006df62000541565b5b62000715565b620006f58484846001620005d5565b925090508184048111156200070f576200070e62000541565b5b81810290505b9392505050565b600060ff82169050919050565b6000620007368262000570565b915062000743836200071c565b9250620007727fffffffffffffffffffffffffffffffffffffffffffffffffffffffffffffffff848462000630565b905092915050565b620007858162000570565b82525050565b6000604082019050620007a2600083018562000461565b620007b160208301846200077a565b939250505056fe60806040523480156200001157600080fd5b50604051620043b8380380620043b88339818101604052810190620000379190620002c5565b604051806020016040528060008152506200005881620000c160201b60201c565b50620000796200006d620000dd60201b60201c565b620000e560201b60201c565b80600460006101000a81548173ffffffffffffffffffffffffffffffffffffffff021916908373ffffffffffffffffffffffffffffffffffffffff160217905550506200035c565b8060029080519060200190620000d9929190620001ab565b5050565b600033905090565b6000600360009054906101000a900473ffffffffffffffffffffffffffffffffffffffff16905081600360006101000a81548173ffffffffffffffffffffffffffffffffffffffff021916908373ffffffffffffffffffffffffffffffffffffffff1602179055508173ffffffffffffffffffffffffffffffffffffffff168173ffffffffffffffffffffffffffffffffffffffff167f8be0079c531659141344cd1fd0a4f28419497f9722a3daafe3b4186f6b6457e060405160405180910390a35050565b828054620001b99062000326565b90600052602060002090601f016020900481019282620001dd576000855562000229565b82601f10620001f857805160ff191683800117855562000229565b8280016001018555821562000229579182015b82811115620002285782518255916020019190600101906200020b565b5b5090506200023891906200023c565b5090565b5b80821115620002575760008160009055506001016200023d565b5090565b600080fd5b600073ffffffffffffffffffffffffffffffffffffffff82169050919050565b60006200028d8262000260565b9050919050565b6200029f8162000280565b8114620002ab57600080fd5b50565b600081519050620002bf8162000294565b92915050565b600060208284031215620002de57620002dd6200025b565b5b6000620002ee84828501620002ae565b91505092915050565b7f4e487b7100000000000000000000000000000000000000000000000000000000600052602260045260246000fd5b600060028204905060018216806200033f57607f821691505b60208210811415620003565762000355620002f7565b5b50919050565b61404c806200036c6000396000f3fe608060405234801561001057600080fd5b506004361061012b5760003560e01c8063a22cb465116100ad578063f242432a11610071578063f242432a1461032c578063f2fde38b14610348578063f4546cb214610364578063f863208d14610380578063fcc7e4c61461039e5761012b565b8063a22cb4651461028a578063b73da62d146102a6578063c45a0155146102c2578063e985e9c5146102e0578063ebe5623d146103105761012b565b80634e1273f4116100f45780634e1273f4146101fa57806367e1923a1461022a578063715018a6146102465780638da5cb5b14610250578063922741df1461026e5761012b565b8062fdd58e1461013057806301ffc9a7146101605780630e89341c146101905780632a5f7153146101c05780632eb2c2d6146101de575b600080fd5b61014a600480360381019061014591906125b7565b6103bc565b6040516101579190612606565b60405180910390f35b61017a60048036038101906101759190612679565b610485565b60405161018791906126c1565b60405180910390f35b6101aa60048036038101906101a591906126dc565b610567565b6040516101b791906127a2565b60405180910390f35b6101c861060c565b6040516101d59190612606565b60405180910390f35b6101f860048036038101906101f391906129c1565b610612565b005b610214600480360381019061020f9190612b53565b6106b3565b6040516102219190612c89565b60405180910390f35b610244600480360381019061023f9190612d06565b6107cc565b005b61024e610a05565b005b610258610a19565b6040516102659190612d96565b60405180910390f35b61028860048036038101906102839190612d06565b610a43565b005b6102a4600480360381019061029f9190612ddd565b610b26565b005b6102c060048036038101906102bb9190612e73565b610b3c565b005b6102ca610c74565b6040516102d79190612f86565b60405180910390f35b6102fa60048036038101906102f59190612fa1565b610c9a565b60405161030791906126c1565b60405180910390f35b61032a60048036038101906103259190613082565b610d2e565b005b61034660048036038101906103419190613133565b610e51565b005b610362600480360381019061035d91906131ca565b610ef2565b005b61037e60048036038101906103799190612e73565b610f76565b005b6103886111bb565b6040516103959190612606565b60405180910390f35b6103a66111c1565b6040516103b39190612606565b60405180910390f35b60008073ffffffffffffffffffffffffffffffffffffffff168373ffffffffffffffffffffffffffffffffffffffff16141561042d576040517f08c379a000000000000000000000000000000000000000000000000000000000815260040161042490613269565b60405180910390fd5b60008083815260200190815260200160002060008473ffffffffffffffffffffffffffffffffffffffff1673ffffffffffffffffffffffffffffffffffffffff16815260200190815260200160002054905092915050565b60007fd9b67a26000000000000000000000000000000000000000000000000000000007bffffffffffffffffffffffffffffffffffffffffffffffffffffffff1916827bffffffffffffffffffffffffffffffffffffffffffffffffffffffff1916148061055057507f0e89341c000000000000000000000000000000000000000000000000000000007bffffffffffffffffffffffffffffffffffffffffffffffffffffffff1916827bffffffffffffffffffffffffffffffffffffffffffffffffffffffff1916145b80610560575061055f826111c7565b5b9050919050565b6060600860008381526020019081526020016000208054610587906132b8565b80601f01602080910402602001604051908101604052809291908181526020018280546105b3906132b8565b80156106005780601f106105d557610100808354040283529160200191610600565b820191906000526020600020905b8154815290600101906020018083116105e357829003601f168201915b50505050509050919050565b60075481565b61061a611231565b73ffffffffffffffffffffffffffffffffffffffff168573ffffffffffffffffffffffffffffffffffffffff161480610660575061065f8561065a611231565b610c9a565b5b61069f576040517f08c379a00000000000000000000000000000000000000000000000000000000081526004016106969061335c565b60405180910390fd5b6106ac8585858585611239565b5050505050565b606081518351146106f9576040517f08c379a00000000000000000000000000000000000000000000000000000000081526004016106f0906133ee565b60405180910390fd5b6000835167ffffffffffffffff811115610716576107156127c9565b5b6040519080825280602002602001820160405280156107445781602001602082028036833780820191505090505b50905060005b84518110156107c1576107918582815181106107695761076861340e565b5b60200260200101518583815181106107845761078361340e565b5b60200260200101516103bc565b8282815181106107a4576107a361340e565b5b602002602001018181525050806107ba9061346c565b905061074a565b508091505092915050565b6107d461155b565b83839050828290501461081c576040517f08c379a000000000000000000000000000000000000000000000000000000000815260040161081390613527565b60405180910390fd5b600084849050905060005b81811015610960576000600960008888858181106108485761084761340e565b5b90506020020135815260200190815260200160002054905060005b8181101561094b5761093830600a60008481526020019081526020016000208054806020026020016040519081016040528092919081815260200182805480156108cc57602002820191906000526020600020905b8154815260200190600101908083116108b8575b5050505050600b600085815260200190815260200160002080548060200260200160405190810160405280929190818152602001828054801561092e57602002820191906000526020600020905b81548152602001906001019080831161091a575b50505050506115d9565b80806109439061346c565b915050610863565b505080806109589061346c565b915050610827565b506109fe30868680806020026020016040519081016040528093929190818152602001838360200280828437600081840152601f19601f82011690508083019250505050505050858580806020026020016040519081016040528093929190818152602001838360200280828437600081840152601f19601f82011690508083019250505050505050604051806020016040528060008152506118a8565b5050505050565b610a0d61155b565b610a176000611ad5565b565b6000600360009054906101000a900473ffffffffffffffffffffffffffffffffffffffff16905090565b610a4b61155b565b838390508282905014610a93576040517f08c379a0000000000000000000000000000000000000000000000000000000008152600401610a8a90613527565b60405180910390fd5b610b2030858580806020026020016040519081016040528093929190818152602001838360200280828437600081840152601f19601f82011690508083019250505050505050848480806020026020016040519081016040528093929190818152602001838360200280828437600081840152601f19601f820116905080830192505050505050506115d9565b50505050565b610b38610b31611231565b8383611b9b565b5050565b610b4461155b565b858590508484905014610b8c576040517f08c379a0000000000000000000000000000000000000000000000000000000008152600401610b83906135b9565b60405180910390fd5b85859050600960006005548152602001908152602001600020819055508585600a600060055481526020019081526020016000209190610bcd92919061241f565b508383600b600060055481526020019081526020016000209190610bf292919061241f565b5081816008600060055481526020019081526020016000209190610c1792919061246c565b506005547f2931fd16a2d011bf618da74e9fc397f94aa1807d8916289525a36f0a7d2f12948383604051610c4c929190613606565b60405180910390a260056000815480929190610c679061346c565b9190505550505050505050565b600460009054906101000a900473ffffffffffffffffffffffffffffffffffffffff1681565b6000600160008473ffffffffffffffffffffffffffffffffffffffff1673ffffffffffffffffffffffffffffffffffffffff16815260200190815260200160002060008373ffffffffffffffffffffffffffffffffffffffff1673ffffffffffffffffffffffffffffffffffffffff16815260200190815260200160002060009054906101000a900460ff16905092915050565b848490508383905014610d76576040517f08c379a0000000000000000000000000000000000000000000000000000000008152600401610d6d90613527565b60405180910390fd5b610e1330868680806020026020016040519081016040528093929190818152602001838360200280828437600081840152601f19601f82011690508083019250505050505050858580806020026020016040519081016040528093929190818152602001838360200280828437600081840152601f19601f82011690508083019250505050505050604051806020016040528060008152506118a8565b7f1890812aad4cf5bf52d81d3c1302a26d5abf754379bab88f8b7f66929ba89e7881604051610e4291906127a2565b60405180910390a15050505050565b610e59611231565b73ffffffffffffffffffffffffffffffffffffffff168573ffffffffffffffffffffffffffffffffffffffff161480610e9f5750610e9e85610e99611231565b610c9a565b5b610ede576040517f08c379a0000000000000000000000000000000000000000000000000000000008152600401610ed59061335c565b60405180910390fd5b610eeb8585858585611d08565b5050505050565b610efa61155b565b600073ffffffffffffffffffffffffffffffffffffffff168173ffffffffffffffffffffffffffffffffffffffff161415610f6a576040517f08c379a0000000000000000000000000000000000000000000000000000000008152600401610f619061369c565b60405180910390fd5b610f7381611ad5565b50565b858590508484905014610fbe576040517f08c379a0000000000000000000000000000000000000000000000000000000008152600401610fb590613527565b60405180910390fd5b61104b30878780806020026020016040519081016040528093929190818152602001838360200280828437600081840152601f19601f82011690508083019250505050505050868680806020026020016040519081016040528093929190818152602001838360200280828437600081840152601f19601f820116905080830192505050505050506115d9565b7fc1b610f19d8ea385f3a1230438dce8639cdce5ab33232bba66a0984bec765436828260405161107c929190613606565b60405180910390a160008060001b90506000600167ffffffffffffffff8111156110a9576110a86127c9565b5b6040519080825280602002602001820160405280156110d75781602001602082028036833780820191505090505b509050600086869050905060005b8181101561112057838382815181106111015761110061340e565b5b60200260200101818152505080806111189061346c565b9150506110e5565b50600460009054906101000a900473ffffffffffffffffffffffffffffffffffffffff1673ffffffffffffffffffffffffffffffffffffffff166371e3dcf933846040518363ffffffff1660e01b815260040161117e929190613784565b600060405180830381600087803b15801561119857600080fd5b505af11580156111ac573d6000803e3d6000fd5b50505050505050505050505050565b60055481565b60065481565b60007f01ffc9a7000000000000000000000000000000000000000000000000000000007bffffffffffffffffffffffffffffffffffffffffffffffffffffffff1916827bffffffffffffffffffffffffffffffffffffffffffffffffffffffff1916149050919050565b600033905090565b815183511461127d576040517f08c379a000000000000000000000000000000000000000000000000000000000815260040161127490613826565b60405180910390fd5b600073ffffffffffffffffffffffffffffffffffffffff168473ffffffffffffffffffffffffffffffffffffffff1614156112ed576040517f08c379a00000000000000000000000000000000000000000000000000000000081526004016112e4906138b8565b60405180910390fd5b60006112f7611231565b9050611307818787878787611fa4565b60005b84518110156114b85760008582815181106113285761132761340e565b5b6020026020010151905060008583815181106113475761134661340e565b5b60200260200101519050600080600084815260200190815260200160002060008b73ffffffffffffffffffffffffffffffffffffffff1673ffffffffffffffffffffffffffffffffffffffff168152602001908152602001600020549050818110156113e8576040517f08c379a00000000000000000000000000000000000000000000000000000000081526004016113df9061394a565b60405180910390fd5b81810360008085815260200190815260200160002060008c73ffffffffffffffffffffffffffffffffffffffff1673ffffffffffffffffffffffffffffffffffffffff168152602001908152602001600020819055508160008085815260200190815260200160002060008b73ffffffffffffffffffffffffffffffffffffffff1673ffffffffffffffffffffffffffffffffffffffff168152602001908152602001600020600082825461149d919061396a565b92505081905550505050806114b19061346c565b905061130a565b508473ffffffffffffffffffffffffffffffffffffffff168673ffffffffffffffffffffffffffffffffffffffff168273ffffffffffffffffffffffffffffffffffffffff167f4a39dc06d4c0dbc64b70af90fd698a233a518aa5d07e595d983b8c0526c8f7fb878760405161152f9291906139c0565b60405180910390a4611545818787878787611fac565b611553818787878787611fb4565b505050505050565b611563611231565b73ffffffffffffffffffffffffffffffffffffffff16611581610a19565b73ffffffffffffffffffffffffffffffffffffffff16146115d7576040517f08c379a00000000000000000000000000000000000000000000000000000000081526004016115ce90613a43565b60405180910390fd5b565b600073ffffffffffffffffffffffffffffffffffffffff168373ffffffffffffffffffffffffffffffffffffffff161415611649576040517f08c379a000000000000000000000000000000000000000000000000000000000815260040161164090613ad5565b60405180910390fd5b805182511461168d576040517f08c379a000000000000000000000000000000000000000000000000000000000815260040161168490613826565b60405180910390fd5b6000611697611231565b90506116b781856000868660405180602001604052806000815250611fa4565b60005b83518110156118045760008482815181106116d8576116d761340e565b5b6020026020010151905060008483815181106116f7576116f661340e565b5b60200260200101519050600080600084815260200190815260200160002060008973ffffffffffffffffffffffffffffffffffffffff1673ffffffffffffffffffffffffffffffffffffffff16815260200190815260200160002054905081811015611798576040517f08c379a000000000000000000000000000000000000000000000000000000000815260040161178f90613b67565b60405180910390fd5b81810360008085815260200190815260200160002060008a73ffffffffffffffffffffffffffffffffffffffff1673ffffffffffffffffffffffffffffffffffffffff1681526020019081526020016000208190555050505080806117fc9061346c565b9150506116ba565b50600073ffffffffffffffffffffffffffffffffffffffff168473ffffffffffffffffffffffffffffffffffffffff168273ffffffffffffffffffffffffffffffffffffffff167f4a39dc06d4c0dbc64b70af90fd698a233a518aa5d07e595d983b8c0526c8f7fb868660405161187c9291906139c0565b60405180910390a46118a281856000868660405180602001604052806000815250611fac565b50505050565b600073ffffffffffffffffffffffffffffffffffffffff168473ffffffffffffffffffffffffffffffffffffffff161415611918576040517f08c379a000000000000000000000000000000000000000000000000000000000815260040161190f90613bf9565b60405180910390fd5b815183511461195c576040517f08c379a000000000000000000000000000000000000000000000000000000000815260040161195390613826565b60405180910390fd5b6000611966611231565b905061197781600087878787611fa4565b60005b8451811015611a30578381815181106119965761199561340e565b5b60200260200101516000808784815181106119b4576119b361340e565b5b6020026020010151815260200190815260200160002060008873ffffffffffffffffffffffffffffffffffffffff1673ffffffffffffffffffffffffffffffffffffffff1681526020019081526020016000206000828254611a16919061396a565b925050819055508080611a289061346c565b91505061197a565b508473ffffffffffffffffffffffffffffffffffffffff16600073ffffffffffffffffffffffffffffffffffffffff168273ffffffffffffffffffffffffffffffffffffffff167f4a39dc06d4c0dbc64b70af90fd698a233a518aa5d07e595d983b8c0526c8f7fb8787604051611aa89291906139c0565b60405180910390a4611abf81600087878787611fac565b611ace81600087878787611fb4565b5050505050565b6000600360009054906101000a900473ffffffffffffffffffffffffffffffffffffffff16905081600360006101000a81548173ffffffffffffffffffffffffffffffffffffffff021916908373ffffffffffffffffffffffffffffffffffffffff1602179055508173ffffffffffffffffffffffffffffffffffffffff168173ffffffffffffffffffffffffffffffffffffffff167f8be0079c531659141344cd1fd0a4f28419497f9722a3daafe3b4186f6b6457e060405160405180910390a35050565b8173ffffffffffffffffffffffffffffffffffffffff168373ffffffffffffffffffffffffffffffffffffffff161415611c0a576040517f08c379a0000000000000000000000000000000000000000000000000000000008152600401611c0190613c8b565b60405180910390fd5b80600160008573ffffffffffffffffffffffffffffffffffffffff1673ffffffffffffffffffffffffffffffffffffffff16815260200190815260200160002060008473ffffffffffffffffffffffffffffffffffffffff1673ffffffffffffffffffffffffffffffffffffffff16815260200190815260200160002060006101000a81548160ff0219169083151502179055508173ffffffffffffffffffffffffffffffffffffffff168373ffffffffffffffffffffffffffffffffffffffff167f17307eab39ab6107e8899845ad3d59bd9653f200f220920489ca2b5937696c3183604051611cfb91906126c1565b60405180910390a3505050565b600073ffffffffffffffffffffffffffffffffffffffff168473ffffffffffffffffffffffffffffffffffffffff161415611d78576040517f08c379a0000000000000000000000000000000000000000000000000000000008152600401611d6f906138b8565b60405180910390fd5b6000611d82611231565b90506000611d8f8561219b565b90506000611d9c8561219b565b9050611dac838989858589611fa4565b600080600088815260200190815260200160002060008a73ffffffffffffffffffffffffffffffffffffffff1673ffffffffffffffffffffffffffffffffffffffff16815260200190815260200160002054905085811015611e43576040517f08c379a0000000000000000000000000000000000000000000000000000000008152600401611e3a9061394a565b60405180910390fd5b85810360008089815260200190815260200160002060008b73ffffffffffffffffffffffffffffffffffffffff1673ffffffffffffffffffffffffffffffffffffffff168152602001908152602001600020819055508560008089815260200190815260200160002060008a73ffffffffffffffffffffffffffffffffffffffff1673ffffffffffffffffffffffffffffffffffffffff1681526020019081526020016000206000828254611ef8919061396a565b925050819055508773ffffffffffffffffffffffffffffffffffffffff168973ffffffffffffffffffffffffffffffffffffffff168573ffffffffffffffffffffffffffffffffffffffff167fc3d58168c5ae7397731d063d5bbf3d657854427343f4c083240f7aacaa2d0f628a8a604051611f75929190613cab565b60405180910390a4611f8b848a8a86868a611fac565b611f99848a8a8a8a8a612215565b505050505050505050565b505050505050565b505050505050565b611fd38473ffffffffffffffffffffffffffffffffffffffff166123fc565b15612193578373ffffffffffffffffffffffffffffffffffffffff1663bc197c8187878686866040518663ffffffff1660e01b8152600401612019959493929190613d29565b602060405180830381600087803b15801561203357600080fd5b505af192505050801561206457506040513d601f19601f820116820180604052508101906120619190613da6565b60015b61210a57612070613de0565b806308c379a014156120cd5750612085613e02565b8061209057506120cf565b806040517f08c379a00000000000000000000000000000000000000000000000000000000081526004016120c491906127a2565b60405180910390fd5b505b6040517f08c379a000000000000000000000000000000000000000000000000000000000815260040161210190613f0a565b60405180910390fd5b63bc197c8160e01b7bffffffffffffffffffffffffffffffffffffffffffffffffffffffff1916817bffffffffffffffffffffffffffffffffffffffffffffffffffffffff191614612191576040517f08c379a000000000000000000000000000000000000000000000000000000000815260040161218890613f9c565b60405180910390fd5b505b505050505050565b60606000600167ffffffffffffffff8111156121ba576121b96127c9565b5b6040519080825280602002602001820160405280156121e85781602001602082028036833780820191505090505b5090508281600081518110612200576121ff61340e565b5b60200260200101818152505080915050919050565b6122348473ffffffffffffffffffffffffffffffffffffffff166123fc565b156123f4578373ffffffffffffffffffffffffffffffffffffffff1663f23a6e6187878686866040518663ffffffff1660e01b815260040161227a959493929190613fbc565b602060405180830381600087803b15801561229457600080fd5b505af19250505080156122c557506040513d601f19601f820116820180604052508101906122c29190613da6565b60015b61236b576122d1613de0565b806308c379a0141561232e57506122e6613e02565b806122f15750612330565b806040517f08c379a000000000000000000000000000000000000000000000000000000000815260040161232591906127a2565b60405180910390fd5b505b6040517f08c379a000000000000000000000000000000000000000000000000000000000815260040161236290613f0a565b60405180910390fd5b63f23a6e6160e01b7bffffffffffffffffffffffffffffffffffffffffffffffffffffffff1916817bffffffffffffffffffffffffffffffffffffffffffffffffffffffff1916146123f2576040517f08c379a00000000000000000000000000000000000000000000000000000000081526004016123e990613f9c565b60405180910390fd5b505b505050505050565b6000808273ffffffffffffffffffffffffffffffffffffffff163b119050919050565b82805482825590600052602060002090810192821561245b579160200282015b8281111561245a57823582559160200191906001019061243f565b5b50905061246891906124f2565b5090565b828054612478906132b8565b90600052602060002090601f01602090048101928261249a57600085556124e1565b82601f106124b357803560ff19168380011785556124e1565b828001600101855582156124e1579182015b828111156124e05782358255916020019190600101906124c5565b5b5090506124ee91906124f2565b5090565b5b8082111561250b5760008160009055506001016124f3565b5090565b6000604051905090565b600080fd5b600080fd5b600073ffffffffffffffffffffffffffffffffffffffff82169050919050565b600061254e82612523565b9050919050565b61255e81612543565b811461256957600080fd5b50565b60008135905061257b81612555565b92915050565b6000819050919050565b61259481612581565b811461259f57600080fd5b50565b6000813590506125b18161258b565b92915050565b600080604083850312156125ce576125cd612519565b5b60006125dc8582860161256c565b92505060206125ed858286016125a2565b9150509250929050565b61260081612581565b82525050565b600060208201905061261b60008301846125f7565b92915050565b60007fffffffff0000000000000000000000000000000000000000000000000000000082169050919050565b61265681612621565b811461266157600080fd5b50565b6000813590506126738161264d565b92915050565b60006020828403121561268f5761268e612519565b5b600061269d84828501612664565b91505092915050565b60008115159050919050565b6126bb816126a6565b82525050565b60006020820190506126d660008301846126b2565b92915050565b6000602082840312156126f2576126f1612519565b5b6000612700848285016125a2565b91505092915050565b600081519050919050565b600082825260208201905092915050565b60005b83811015612743578082015181840152602081019050612728565b83811115612752576000848401525b50505050565b6000601f19601f8301169050919050565b600061277482612709565b61277e8185612714565b935061278e818560208601612725565b61279781612758565b840191505092915050565b600060208201905081810360008301526127bc8184612769565b905092915050565b600080fd5b7f4e487b7100000000000000000000000000000000000000000000000000000000600052604160045260246000fd5b61280182612758565b810181811067ffffffffffffffff821117156128205761281f6127c9565b5b80604052505050565b600061283361250f565b905061283f82826127f8565b919050565b600067ffffffffffffffff82111561285f5761285e6127c9565b5b602082029050602081019050919050565b600080fd5b600061288861288384612844565b612829565b905080838252602082019050602084028301858111156128ab576128aa612870565b5b835b818110156128d457806128c088826125a2565b8452602084019350506020810190506128ad565b5050509392505050565b600082601f8301126128f3576128f26127c4565b5b8135612903848260208601612875565b91505092915050565b600080fd5b600067ffffffffffffffff82111561292c5761292b6127c9565b5b61293582612758565b9050602081019050919050565b82818337600083830152505050565b600061296461295f84612911565b612829565b9050828152602081018484840111156129805761297f61290c565b5b61298b848285612942565b509392505050565b600082601f8301126129a8576129a76127c4565b5b81356129b8848260208601612951565b91505092915050565b600080600080600060a086880312156129dd576129dc612519565b5b60006129eb8882890161256c565b95505060206129fc8882890161256c565b945050604086013567ffffffffffffffff811115612a1d57612a1c61251e565b5b612a29888289016128de565b935050606086013567ffffffffffffffff811115612a4a57612a4961251e565b5b612a56888289016128de565b925050608086013567ffffffffffffffff811115612a7757612a7661251e565b5b612a8388828901612993565b9150509295509295909350565b600067ffffffffffffffff821115612aab57612aaa6127c9565b5b602082029050602081019050919050565b6000612acf612aca84612a90565b612829565b90508083825260208201905060208402830185811115612af257612af1612870565b5b835b81811015612b1b5780612b07888261256c565b845260208401935050602081019050612af4565b5050509392505050565b600082601f830112612b3a57612b396127c4565b5b8135612b4a848260208601612abc565b91505092915050565b60008060408385031215612b6a57612b69612519565b5b600083013567ffffffffffffffff811115612b8857612b8761251e565b5b612b9485828601612b25565b925050602083013567ffffffffffffffff811115612bb557612bb461251e565b5b612bc1858286016128de565b9150509250929050565b600081519050919050565b600082825260208201905092915050565b6000819050602082019050919050565b612c0081612581565b82525050565b6000612c128383612bf7565b60208301905092915050565b6000602082019050919050565b6000612c3682612bcb565b612c408185612bd6565b9350612c4b83612be7565b8060005b83811015612c7c578151612c638882612c06565b9750612c6e83612c1e565b925050600181019050612c4f565b5085935050505092915050565b60006020820190508181036000830152612ca38184612c2b565b905092915050565b600080fd5b60008083601f840112612cc657612cc56127c4565b5b8235905067ffffffffffffffff811115612ce357612ce2612cab565b5b602083019150836020820283011115612cff57612cfe612870565b5b9250929050565b60008060008060408587031215612d2057612d1f612519565b5b600085013567ffffffffffffffff811115612d3e57612d3d61251e565b5b612d4a87828801612cb0565b9450945050602085013567ffffffffffffffff811115612d6d57612d6c61251e565b5b612d7987828801612cb0565b925092505092959194509250565b612d9081612543565b82525050565b6000602082019050612dab6000830184612d87565b92915050565b612dba816126a6565b8114612dc557600080fd5b50565b600081359050612dd781612db1565b92915050565b60008060408385031215612df457612df3612519565b5b6000612e028582860161256c565b9250506020612e1385828601612dc8565b9150509250929050565b60008083601f840112612e3357612e326127c4565b5b8235905067ffffffffffffffff811115612e5057612e4f612cab565b5b602083019150836001820283011115612e6c57612e6b612870565b5b9250929050565b60008060008060008060608789031215612e9057612e8f612519565b5b600087013567ffffffffffffffff811115612eae57612ead61251e565b5b612eba89828a01612cb0565b9650965050602087013567ffffffffffffffff811115612edd57612edc61251e565b5b612ee989828a01612cb0565b9450945050604087013567ffffffffffffffff811115612f0c57612f0b61251e565b5b612f1889828a01612e1d565b92509250509295509295509295565b6000819050919050565b6000612f4c612f47612f4284612523565b612f27565b612523565b9050919050565b6000612f5e82612f31565b9050919050565b6000612f7082612f53565b9050919050565b612f8081612f65565b82525050565b6000602082019050612f9b6000830184612f77565b92915050565b60008060408385031215612fb857612fb7612519565b5b6000612fc68582860161256c565b9250506020612fd78582860161256c565b9150509250929050565b600067ffffffffffffffff821115612ffc57612ffb6127c9565b5b61300582612758565b9050602081019050919050565b600061302561302084612fe1565b612829565b9050828152602081018484840111156130415761304061290c565b5b61304c848285612942565b509392505050565b600082601f830112613069576130686127c4565b5b8135613079848260208601613012565b91505092915050565b60008060008060006060868803121561309e5761309d612519565b5b600086013567ffffffffffffffff8111156130bc576130bb61251e565b5b6130c888828901612cb0565b9550955050602086013567ffffffffffffffff8111156130eb576130ea61251e565b5b6130f788828901612cb0565b9350935050604086013567ffffffffffffffff81111561311a5761311961251e565b5b61312688828901613054565b9150509295509295909350565b600080600080600060a0868803121561314f5761314e612519565b5b600061315d8882890161256c565b955050602061316e8882890161256c565b945050604061317f888289016125a2565b9350506060613190888289016125a2565b925050608086013567ffffffffffffffff8111156131b1576131b061251e565b5b6131bd88828901612993565b9150509295509295909350565b6000602082840312156131e0576131df612519565b5b60006131ee8482850161256c565b91505092915050565b7f455243313135353a2061646472657373207a65726f206973206e6f742061207660008201527f616c6964206f776e657200000000000000000000000000000000000000000000602082015250565b6000613253602a83612714565b915061325e826131f7565b604082019050919050565b6000602082019050818103600083015261328281613246565b9050919050565b7f4e487b7100000000000000000000000000000000000000000000000000000000600052602260045260246000fd5b600060028204905060018216806132d057607f821691505b602082108114156132e4576132e3613289565b5b50919050565b7f455243313135353a2063616c6c6572206973206e6f7420746f6b656e206f776e60008201527f6572206e6f7220617070726f7665640000000000000000000000000000000000602082015250565b6000613346602f83612714565b9150613351826132ea565b604082019050919050565b6000602082019050818103600083015261337581613339565b9050919050565b7f455243313135353a206163636f756e747320616e6420696473206c656e67746860008201527f206d69736d617463680000000000000000000000000000000000000000000000602082015250565b60006133d8602983612714565b91506133e38261337c565b604082019050919050565b60006020820190508181036000830152613407816133cb565b9050919050565b7f4e487b7100000000000000000000000000000000000000000000000000000000600052603260045260246000fd5b7f4e487b7100000000000000000000000000000000000000000000000000000000600052601160045260246000fd5b600061347782612581565b91507fffffffffffffffffffffffffffffffffffffffffffffffffffffffffffffffff8214156134aa576134a961343d565b5b600182019050919050565b7f546f6b656e49647320616e6420416d6f756e74732061727261792073686f756c60008201527f642062652073616d652073697a652e0000000000000000000000000000000000602082015250565b6000613511602f83612714565b915061351c826134b5565b604082019050919050565b6000602082019050818103600083015261354081613504565b9050919050565b7f546f6b656e49647320616e6420616d6f756e74732061727261792073686f756c60008201527f642062652073616d652073697a652e0000000000000000000000000000000000602082015250565b60006135a3602f83612714565b91506135ae82613547565b604082019050919050565b600060208201905081810360008301526135d281613596565b9050919050565b60006135e58385612714565b93506135f2838584612942565b6135fb83612758565b840190509392505050565b600060208201905081810360008301526136218184866135d9565b90509392505050565b7f4f776e61626c653a206e6577206f776e657220697320746865207a65726f206160008201527f6464726573730000000000000000000000000000000000000000000000000000602082015250565b6000613686602683612714565b91506136918261362a565b604082019050919050565b600060208201905081810360008301526136b581613679565b9050919050565b600081519050919050565b600082825260208201905092915050565b6000819050602082019050919050565b6000819050919050565b6136fb816136e8565b82525050565b600061370d83836136f2565b60208301905092915050565b6000602082019050919050565b6000613731826136bc565b61373b81856136c7565b9350613746836136d8565b8060005b8381101561377757815161375e8882613701565b975061376983613719565b92505060018101905061374a565b5085935050505092915050565b60006040820190506137996000830185612d87565b81810360208301526137ab8184613726565b90509392505050565b7f455243313135353a2069647320616e6420616d6f756e7473206c656e6774682060008201527f6d69736d61746368000000000000000000000000000000000000000000000000602082015250565b6000613810602883612714565b915061381b826137b4565b604082019050919050565b6000602082019050818103600083015261383f81613803565b9050919050565b7f455243313135353a207472616e7366657220746f20746865207a65726f20616460008201527f6472657373000000000000000000000000000000000000000000000000000000602082015250565b60006138a2602583612714565b91506138ad82613846565b604082019050919050565b600060208201905081810360008301526138d181613895565b9050919050565b7f455243313135353a20696e73756666696369656e742062616c616e636520666f60008201527f72207472616e7366657200000000000000000000000000000000000000000000602082015250565b6000613934602a83612714565b915061393f826138d8565b604082019050919050565b6000602082019050818103600083015261396381613927565b9050919050565b600061397582612581565b915061398083612581565b9250827fffffffffffffffffffffffffffffffffffffffffffffffffffffffffffffffff038211156139b5576139b461343d565b5b828201905092915050565b600060408201905081810360008301526139da8185612c2b565b905081810360208301526139ee8184612c2b565b90509392505050565b7f4f776e61626c653a2063616c6c6572206973206e6f7420746865206f776e6572600082015250565b6000613a2d602083612714565b9150613a38826139f7565b602082019050919050565b60006020820190508181036000830152613a5c81613a20565b9050919050565b7f455243313135353a206275726e2066726f6d20746865207a65726f206164647260008201527f6573730000000000000000000000000000000000000000000000000000000000602082015250565b6000613abf602383612714565b9150613aca82613a63565b604082019050919050565b60006020820190508181036000830152613aee81613ab2565b9050919050565b7f455243313135353a206275726e20616d6f756e7420657863656564732062616c60008201527f616e636500000000000000000000000000000000000000000000000000000000602082015250565b6000613b51602483612714565b9150613b5c82613af5565b604082019050919050565b60006020820190508181036000830152613b8081613b44565b9050919050565b7f455243313135353a206d696e7420746f20746865207a65726f2061646472657360008201527f7300000000000000000000000000000000000000000000000000000000000000602082015250565b6000613be3602183612714565b9150613bee82613b87565b604082019050919050565b60006020820190508181036000830152613c1281613bd6565b9050919050565b7f455243313135353a2073657474696e6720617070726f76616c2073746174757360008201527f20666f722073656c660000000000000000000000000000000000000000000000602082015250565b6000613c75602983612714565b9150613c8082613c19565b604082019050919050565b60006020820190508181036000830152613ca481613c68565b9050919050565b6000604082019050613cc060008301856125f7565b613ccd60208301846125f7565b9392505050565b600081519050919050565b600082825260208201905092915050565b6000613cfb82613cd4565b613d058185613cdf565b9350613d15818560208601612725565b613d1e81612758565b840191505092915050565b600060a082019050613d3e6000830188612d87565b613d4b6020830187612d87565b8181036040830152613d5d8186612c2b565b90508181036060830152613d718185612c2b565b90508181036080830152613d858184613cf0565b90509695505050505050565b600081519050613da08161264d565b92915050565b600060208284031215613dbc57613dbb612519565b5b6000613dca84828501613d91565b91505092915050565b60008160e01c9050919050565b600060033d1115613dff5760046000803e613dfc600051613dd3565b90505b90565b600060443d1015613e1257613e95565b613e1a61250f565b60043d036004823e80513d602482011167ffffffffffffffff82111715613e42575050613e95565b808201805167ffffffffffffffff811115613e605750505050613e95565b80602083010160043d038501811115613e7d575050505050613e95565b613e8c826020018501866127f8565b82955050505050505b90565b7f455243313135353a207472616e7366657220746f206e6f6e204552433131353560008201527f526563656976657220696d706c656d656e746572000000000000000000000000602082015250565b6000613ef4603483612714565b9150613eff82613e98565b604082019050919050565b60006020820190508181036000830152613f2381613ee7565b9050919050565b7f455243313135353a204552433131353552656365697665722072656a6563746560008201527f6420746f6b656e73000000000000000000000000000000000000000000000000602082015250565b6000613f86602883612714565b9150613f9182613f2a565b604082019050919050565b60006020820190508181036000830152613fb581613f79565b9050919050565b600060a082019050613fd16000830188612d87565b613fde6020830187612d87565b613feb60408301866125f7565b613ff860608301856125f7565b818103608083015261400a8184613cf0565b9050969550505050505056fea2646970667358221220b2d2be0be9d087ed6a2a6082f04682db897d702e8102d47b19ff2196a43d7dc664736f6c63430008090033a264697066735822122034f8a45953595f0af42857df40df9379cd44cb8b67bc2badb1e42dac12a5d0e064736f6c6343000809003360806040523480156200001157600080fd5b506040518060400160405280600881526020017f455347546f6b656e0000000000000000000000000000000000000000000000008152506040518060400160405280600481526020017f4553475400000000000000000000000000000000000000000000000000000000815250816003908051906020019062000096929190620001a6565b508060049080519060200190620000af929190620001a6565b505050620000d2620000c6620000d860201b60201c565b620000e060201b60201c565b620002bb565b600033905090565b6000600560009054906101000a900473ffffffffffffffffffffffffffffffffffffffff16905081600560006101000a81548173ffffffffffffffffffffffffffffffffffffffff021916908373ffffffffffffffffffffffffffffffffffffffff1602179055508173ffffffffffffffffffffffffffffffffffffffff168173ffffffffffffffffffffffffffffffffffffffff167f8be0079c531659141344cd1fd0a4f28419497f9722a3daafe3b4186f6b6457e060405160405180910390a35050565b828054620001b49062000285565b90600052602060002090601f016020900481019282620001d8576000855562000224565b82601f10620001f357805160ff191683800117855562000224565b8280016001018555821562000224579182015b828111156200022357825182559160200191906001019062000206565b5b50905062000233919062000237565b5090565b5b808211156200025257600081600090555060010162000238565b5090565b7f4e487b7100000000000000000000000000000000000000000000000000000000600052602260045260246000fd5b600060028204905060018216806200029e57607f821691505b60208210811415620002b557620002b462000256565b5b50919050565b61182480620002cb6000396000f3fe608060405234801561001057600080fd5b50600436106100f55760003560e01c806370a0823111610097578063a457c2d711610066578063a457c2d714610276578063a9059cbb146102a6578063dd62ed3e146102d6578063f2fde38b14610306576100f5565b806370a0823114610200578063715018a6146102305780638da5cb5b1461023a57806395d89b4114610258576100f5565b806323b872dd116100d357806323b872dd14610166578063313ce5671461019657806339509351146101b457806340c10f19146101e4576100f5565b806306fdde03146100fa578063095ea7b31461011857806318160ddd14610148575b600080fd5b610102610322565b60405161010f9190610f4a565b60405180910390f35b610132600480360381019061012d9190611005565b6103b4565b60405161013f9190611060565b60405180910390f35b6101506103d7565b60405161015d919061108a565b60405180910390f35b610180600480360381019061017b91906110a5565b6103e1565b60405161018d9190611060565b60405180910390f35b61019e610410565b6040516101ab9190611114565b60405180910390f35b6101ce60048036038101906101c99190611005565b610419565b6040516101db9190611060565b60405180910390f35b6101fe60048036038101906101f99190611005565b610450565b005b61021a6004803603810190610215919061112f565b610466565b604051610227919061108a565b60405180910390f35b6102386104ae565b005b6102426104c2565b60405161024f919061116b565b60405180910390f35b6102606104ec565b60405161026d9190610f4a565b60405180910390f35b610290600480360381019061028b9190611005565b61057e565b60405161029d9190611060565b60405180910390f35b6102c060048036038101906102bb9190611005565b6105f5565b6040516102cd9190611060565b60405180910390f35b6102f060048036038101906102eb9190611186565b610618565b6040516102fd919061108a565b60405180910390f35b610320600480360381019061031b919061112f565b61069f565b005b606060038054610331906111f5565b80601f016020809104026020016040519081016040528092919081815260200182805461035d906111f5565b80156103aa5780601f1061037f576101008083540402835291602001916103aa565b820191906000526020600020905b81548152906001019060200180831161038d57829003601f168201915b5050505050905090565b6000806103bf610723565b90506103cc81858561072b565b600191505092915050565b6000600254905090565b6000806103ec610723565b90506103f98582856108f6565b610404858585610982565b60019150509392505050565b60006012905090565b600080610424610723565b90506104458185856104368589610618565b6104409190611256565b61072b565b600191505092915050565b610458610c03565b6104628282610c81565b5050565b60008060008373ffffffffffffffffffffffffffffffffffffffff1673ffffffffffffffffffffffffffffffffffffffff168152602001908152602001600020549050919050565b6104b6610c03565b6104c06000610de1565b565b6000600560009054906101000a900473ffffffffffffffffffffffffffffffffffffffff16905090565b6060600480546104fb906111f5565b80601f0160208091040260200160405190810160405280929190818152602001828054610527906111f5565b80156105745780601f1061054957610100808354040283529160200191610574565b820191906000526020600020905b81548152906001019060200180831161055757829003601f168201915b5050505050905090565b600080610589610723565b905060006105978286610618565b9050838110156105dc576040517f08c379a00000000000000000000000000000000000000000000000000000000081526004016105d39061131e565b60405180910390fd5b6105e9828686840361072b565b60019250505092915050565b600080610600610723565b905061060d818585610982565b600191505092915050565b6000600160008473ffffffffffffffffffffffffffffffffffffffff1673ffffffffffffffffffffffffffffffffffffffff16815260200190815260200160002060008373ffffffffffffffffffffffffffffffffffffffff1673ffffffffffffffffffffffffffffffffffffffff16815260200190815260200160002054905092915050565b6106a7610c03565b600073ffffffffffffffffffffffffffffffffffffffff168173ffffffffffffffffffffffffffffffffffffffff161415610717576040517f08c379a000000000000000000000000000000000000000000000000000000000815260040161070e906113b0565b60405180910390fd5b61072081610de1565b50565b600033905090565b600073ffffffffffffffffffffffffffffffffffffffff168373ffffffffffffffffffffffffffffffffffffffff16141561079b576040517f08c379a000000000000000000000000000000000000000000000000000000000815260040161079290611442565b60405180910390fd5b600073ffffffffffffffffffffffffffffffffffffffff168273ffffffffffffffffffffffffffffffffffffffff16141561080b576040517f08c379a0000000000000000000000000000000000000000000000000000000008152600401610802906114d4565b60405180910390fd5b80600160008573ffffffffffffffffffffffffffffffffffffffff1673ffffffffffffffffffffffffffffffffffffffff16815260200190815260200160002060008473ffffffffffffffffffffffffffffffffffffffff1673ffffffffffffffffffffffffffffffffffffffff168152602001908152602001600020819055508173ffffffffffffffffffffffffffffffffffffffff168373ffffffffffffffffffffffffffffffffffffffff167f8c5be1e5ebec7d5bd14f71427d1e84f3dd0314c0f7b2291e5b200ac8c7c3b925836040516108e9919061108a565b60405180910390a3505050565b60006109028484610618565b90507fffffffffffffffffffffffffffffffffffffffffffffffffffffffffffffffff811461097c578181101561096e576040517f08c379a000000000000000000000000000000000000000000000000000000000815260040161096590611540565b60405180910390fd5b61097b848484840361072b565b5b50505050565b600073ffffffffffffffffffffffffffffffffffffffff168373ffffffffffffffffffffffffffffffffffffffff1614156109f2576040517f08c379a00000000000000000000000000000000000000000000000000000000081526004016109e9906115d2565b60405180910390fd5b600073ffffffffffffffffffffffffffffffffffffffff168273ffffffffffffffffffffffffffffffffffffffff161415610a62576040517f08c379a0000000000000000000000000000000000000000000000000000000008152600401610a5990611664565b60405180910390fd5b610a6d838383610ea7565b60008060008573ffffffffffffffffffffffffffffffffffffffff1673ffffffffffffffffffffffffffffffffffffffff16815260200190815260200160002054905081811015610af3576040517f08c379a0000000000000000000000000000000000000000000000000000000008152600401610aea906116f6565b60405180910390fd5b8181036000808673ffffffffffffffffffffffffffffffffffffffff1673ffffffffffffffffffffffffffffffffffffffff16815260200190815260200160002081905550816000808573ffffffffffffffffffffffffffffffffffffffff1673ffffffffffffffffffffffffffffffffffffffff1681526020019081526020016000206000828254610b869190611256565b925050819055508273ffffffffffffffffffffffffffffffffffffffff168473ffffffffffffffffffffffffffffffffffffffff167fddf252ad1be2c89b69c2b068fc378daa952ba7f163c4a11628f55a4df523b3ef84604051610bea919061108a565b60405180910390a3610bfd848484610eac565b50505050565b610c0b610723565b73ffffffffffffffffffffffffffffffffffffffff16610c296104c2565b73ffffffffffffffffffffffffffffffffffffffff1614610c7f576040517f08c379a0000000000000000000000000000000000000000000000000000000008152600401610c7690611762565b60405180910390fd5b565b600073ffffffffffffffffffffffffffffffffffffffff168273ffffffffffffffffffffffffffffffffffffffff161415610cf1576040517f08c379a0000000000000000000000000000000000000000000000000000000008152600401610ce8906117ce565b60405180910390fd5b610cfd60008383610ea7565b8060026000828254610d0f9190611256565b92505081905550806000808473ffffffffffffffffffffffffffffffffffffffff1673ffffffffffffffffffffffffffffffffffffffff1681526020019081526020016000206000828254610d649190611256565b925050819055508173ffffffffffffffffffffffffffffffffffffffff16600073ffffffffffffffffffffffffffffffffffffffff167fddf252ad1be2c89b69c2b068fc378daa952ba7f163c4a11628f55a4df523b3ef83604051610dc9919061108a565b60405180910390a3610ddd60008383610eac565b5050565b6000600560009054906101000a900473ffffffffffffffffffffffffffffffffffffffff16905081600560006101000a81548173ffffffffffffffffffffffffffffffffffffffff021916908373ffffffffffffffffffffffffffffffffffffffff1602179055508173ffffffffffffffffffffffffffffffffffffffff168173ffffffffffffffffffffffffffffffffffffffff167f8be0079c531659141344cd1fd0a4f28419497f9722a3daafe3b4186f6b6457e060405160405180910390a35050565b505050565b505050565b600081519050919050565b600082825260208201905092915050565b60005b83811015610eeb578082015181840152602081019050610ed0565b83811115610efa576000848401525b50505050565b6000601f19601f8301169050919050565b6000610f1c82610eb1565b610f268185610ebc565b9350610f36818560208601610ecd565b610f3f81610f00565b840191505092915050565b60006020820190508181036000830152610f648184610f11565b905092915050565b600080fd5b600073ffffffffffffffffffffffffffffffffffffffff82169050919050565b6000610f9c82610f71565b9050919050565b610fac81610f91565b8114610fb757600080fd5b50565b600081359050610fc981610fa3565b92915050565b6000819050919050565b610fe281610fcf565b8114610fed57600080fd5b50565b600081359050610fff81610fd9565b92915050565b6000806040838503121561101c5761101b610f6c565b5b600061102a85828601610fba565b925050602061103b85828601610ff0565b9150509250929050565b60008115159050919050565b61105a81611045565b82525050565b60006020820190506110756000830184611051565b92915050565b61108481610fcf565b82525050565b600060208201905061109f600083018461107b565b92915050565b6000806000606084860312156110be576110bd610f6c565b5b60006110cc86828701610fba565b93505060206110dd86828701610fba565b92505060406110ee86828701610ff0565b9150509250925092565b600060ff82169050919050565b61110e816110f8565b82525050565b60006020820190506111296000830184611105565b92915050565b60006020828403121561114557611144610f6c565b5b600061115384828501610fba565b91505092915050565b61116581610f91565b82525050565b6000602082019050611180600083018461115c565b92915050565b6000806040838503121561119d5761119c610f6c565b5b60006111ab85828601610fba565b92505060206111bc85828601610fba565b9150509250929050565b7f4e487b7100000000000000000000000000000000000000000000000000000000600052602260045260246000fd5b6000600282049050600182168061120d57607f821691505b60208210811415611221576112206111c6565b5b50919050565b7f4e487b7100000000000000000000000000000000000000000000000000000000600052601160045260246000fd5b600061126182610fcf565b915061126c83610fcf565b9250827fffffffffffffffffffffffffffffffffffffffffffffffffffffffffffffffff038211156112a1576112a0611227565b5b828201905092915050565b7f45524332303a2064656372656173656420616c6c6f77616e63652062656c6f7760008201527f207a65726f000000000000000000000000000000000000000000000000000000602082015250565b6000611308602583610ebc565b9150611313826112ac565b604082019050919050565b60006020820190508181036000830152611337816112fb565b9050919050565b7f4f776e61626c653a206e6577206f776e657220697320746865207a65726f206160008201527f6464726573730000000000000000000000000000000000000000000000000000602082015250565b600061139a602683610ebc565b91506113a58261133e565b604082019050919050565b600060208201905081810360008301526113c98161138d565b9050919050565b7f45524332303a20617070726f76652066726f6d20746865207a65726f2061646460008201527f7265737300000000000000000000000000000000000000000000000000000000602082015250565b600061142c602483610ebc565b9150611437826113d0565b604082019050919050565b6000602082019050818103600083015261145b8161141f565b9050919050565b7f45524332303a20617070726f766520746f20746865207a65726f20616464726560008201527f7373000000000000000000000000000000000000000000000000000000000000602082015250565b60006114be602283610ebc565b91506114c982611462565b604082019050919050565b600060208201905081810360008301526114ed816114b1565b9050919050565b7f45524332303a20696e73756666696369656e7420616c6c6f77616e6365000000600082015250565b600061152a601d83610ebc565b9150611535826114f4565b602082019050919050565b600060208201905081810360008301526115598161151d565b9050919050565b7f45524332303a207472616e736665722066726f6d20746865207a65726f20616460008201527f6472657373000000000000000000000000000000000000000000000000000000602082015250565b60006115bc602583610ebc565b91506115c782611560565b604082019050919050565b600060208201905081810360008301526115eb816115af565b9050919050565b7f45524332303a207472616e7366657220746f20746865207a65726f206164647260008201527f6573730000000000000000000000000000000000000000000000000000000000602082015250565b600061164e602383610ebc565b9150611659826115f2565b604082019050919050565b6000602082019050818103600083015261167d81611641565b9050919050565b7f45524332303a207472616e7366657220616d6f756e742065786365656473206260008201527f616c616e63650000000000000000000000000000000000000000000000000000602082015250565b60006116e0602683610ebc565b91506116eb82611684565b604082019050919050565b6000602082019050818103600083015261170f816116d3565b9050919050565b7f4f776e61626c653a2063616c6c6572206973206e6f7420746865206f776e6572600082015250565b600061174c602083610ebc565b915061175782611716565b602082019050919050565b6000602082019050818103600083015261177b8161173f565b9050919050565b7f45524332303a206d696e7420746f20746865207a65726f206164647265737300600082015250565b60006117b8601f83610ebc565b91506117c382611782565b602082019050919050565b600060208201905081810360008301526117e7816117ab565b905091905056fea264697066735822122057f555684617da5948389b62ab5fbc7bf3830fc26a0b6b0ee1cf84e497f882aa64736f6c63430008090033",
  "linkReferences": {},
  "deployedLinkReferences": {}
}